{
  "_format": "hh-sol-artifact-1",
  "contractName": "Upload",
  "sourceName": "contracts/Upload.sol",
  "abi": [
    {
      "inputs": [],
      "stateMutability": "nonpayable",
      "type": "constructor"
    },
    {
      "anonymous": false,
      "inputs": [
        {
          "indexed": false,
          "internalType": "address",
          "name": "_user",
          "type": "address"
        },
        {
          "indexed": false,
          "internalType": "string",
          "name": "imageUrl",
          "type": "string"
        },
        {
          "indexed": false,
          "internalType": "string",
          "name": "review",
          "type": "string"
        }
      ],
      "name": "ImageReviewed",
      "type": "event"
    },
    {
      "anonymous": false,
      "inputs": [
        {
          "indexed": false,
          "internalType": "address",
          "name": "_user",
          "type": "address"
        },
        {
          "indexed": false,
          "internalType": "string",
          "name": "imageUrl",
          "type": "string"
        }
      ],
      "name": "ImageSubmitted",
      "type": "event"
    },
    {
      "anonymous": false,
      "inputs": [
        {
          "indexed": false,
          "internalType": "address",
          "name": "_user",
          "type": "address"
        },
        {
          "indexed": false,
          "internalType": "string",
          "name": "imageUrl",
          "type": "string"
        },
        {
          "indexed": false,
          "internalType": "bool",
          "name": "choice",
          "type": "bool"
        }
      ],
      "name": "ImageVerified",
      "type": "event"
    },
    {
      "inputs": [
        {
          "internalType": "string",
          "name": "_url",
          "type": "string"
        },
        {
          "internalType": "string",
          "name": "_solution",
          "type": "string"
        }
      ],
      "name": "AI_solution",
      "outputs": [],
      "stateMutability": "nonpayable",
      "type": "function"
    },
    {
      "inputs": [
        {
          "internalType": "address",
          "name": "_farmer",
          "type": "address"
        },
        {
          "internalType": "uint256",
          "name": "_adhar_id",
          "type": "uint256"
        }
      ],
      "name": "add_farmer",
      "outputs": [],
      "stateMutability": "nonpayable",
      "type": "function"
    },
    {
      "inputs": [
        {
          "internalType": "address",
          "name": "_scientist",
          "type": "address"
        },
        {
          "internalType": "uint256",
          "name": "_adhar_id",
          "type": "uint256"
        },
        {
          "internalType": "uint256",
          "name": "_scientist_id",
          "type": "uint256"
        }
      ],
      "name": "add_scientist",
      "outputs": [],
      "stateMutability": "nonpayable",
      "type": "function"
    },
    {
      "inputs": [
        {
          "internalType": "address",
          "name": "",
          "type": "address"
        }
      ],
      "name": "farmer_map",
      "outputs": [
        {
          "internalType": "uint256",
          "name": "level",
          "type": "uint256"
        },
        {
          "internalType": "uint256",
          "name": "adhar_id",
          "type": "uint256"
        },
        {
          "internalType": "uint256",
          "name": "auth_points",
          "type": "uint256"
        },
        {
          "internalType": "string",
          "name": "images_upload",
          "type": "string"
        },
        {
          "internalType": "string",
          "name": "image_VR",
          "type": "string"
        },
        {
          "internalType": "address",
          "name": "farmer_add",
          "type": "address"
        },
        {
          "internalType": "uint256",
          "name": "correctReportCount",
          "type": "uint256"
        }
      ],
      "stateMutability": "view",
      "type": "function"
    },
    {
      "inputs": [],
      "name": "getKvkManager",
      "outputs": [
        {
          "internalType": "address",
          "name": "",
          "type": "address"
        }
      ],
      "stateMutability": "view",
      "type": "function"
    },
    {
      "inputs": [],
      "name": "get_close_images",
      "outputs": [
        {
          "internalType": "string",
          "name": "",
          "type": "string"
        }
      ],
      "stateMutability": "view",
      "type": "function"
    },
    {
      "inputs": [],
      "name": "get_farmers",
      "outputs": [
        {
          "internalType": "address[]",
          "name": "",
          "type": "address[]"
        }
      ],
      "stateMutability": "view",
      "type": "function"
    },
    {
      "inputs": [],
      "name": "get_open_images",
      "outputs": [
        {
          "internalType": "string",
          "name": "",
          "type": "string"
        }
      ],
      "stateMutability": "view",
      "type": "function"
    },
    {
      "inputs": [],
      "name": "get_pending_images",
      "outputs": [
        {
          "internalType": "string",
          "name": "",
          "type": "string"
        }
      ],
      "stateMutability": "view",
      "type": "function"
    },
    {
      "inputs": [],
      "name": "get_scientists",
      "outputs": [
        {
          "internalType": "address[]",
          "name": "",
          "type": "address[]"
        }
      ],
      "stateMutability": "view",
      "type": "function"
    },
    {
      "inputs": [
        {
          "internalType": "string",
          "name": "",
          "type": "string"
        }
      ],
      "name": "image_verifiers",
      "outputs": [
        {
          "internalType": "string",
          "name": "",
          "type": "string"
        }
      ],
      "stateMutability": "view",
      "type": "function"
    },
    {
      "inputs": [
        {
          "internalType": "string",
          "name": "",
          "type": "string"
        }
      ],
      "name": "images",
      "outputs": [
        {
          "internalType": "address",
          "name": "owner",
          "type": "address"
        },
        {
          "internalType": "string",
          "name": "imageUrl",
          "type": "string"
        },
        {
          "internalType": "string",
          "name": "AI_sol",
          "type": "string"
        },
        {
          "internalType": "address",
          "name": "reviewer",
          "type": "address"
        },
        {
          "internalType": "string",
          "name": "reviewer_sol",
          "type": "string"
        },
        {
          "internalType": "bool",
          "name": "got_AI",
          "type": "bool"
        },
        {
          "internalType": "bool",
          "name": "reviewed",
          "type": "bool"
        },
        {
          "internalType": "bool",
          "name": "verified",
          "type": "bool"
        },
        {
          "internalType": "uint256",
          "name": "verificationCount",
          "type": "uint256"
        },
        {
          "internalType": "uint256",
          "name": "true_count",
          "type": "uint256"
        },
        {
          "internalType": "uint256",
          "name": "false_count",
          "type": "uint256"
        }
      ],
      "stateMutability": "view",
      "type": "function"
    },
    {
      "inputs": [
        {
          "internalType": "string",
          "name": "_url",
          "type": "string"
        },
        {
          "internalType": "string",
          "name": "_solution",
          "type": "string"
        }
      ],
      "name": "review_image",
      "outputs": [],
      "stateMutability": "nonpayable",
      "type": "function"
    },
    {
      "inputs": [
        {
          "internalType": "address",
          "name": "",
          "type": "address"
        }
      ],
      "name": "scientist_map",
      "outputs": [
        {
          "internalType": "uint256",
          "name": "level",
          "type": "uint256"
        },
        {
          "internalType": "uint256",
          "name": "adhar_id",
          "type": "uint256"
        },
        {
          "internalType": "uint256",
          "name": "auth_points",
          "type": "uint256"
        },
        {
          "internalType": "uint256",
          "name": "scientist_id",
          "type": "uint256"
        },
        {
          "internalType": "string",
          "name": "image_VR",
          "type": "string"
        },
        {
          "internalType": "string",
          "name": "image_rvd",
          "type": "string"
        },
        {
          "internalType": "address",
          "name": "scientist_add",
          "type": "address"
        },
        {
          "internalType": "uint256",
          "name": "correctReportCount",
          "type": "uint256"
        }
      ],
      "stateMutability": "view",
      "type": "function"
    },
    {
      "inputs": [
        {
          "internalType": "address",
          "name": "_user",
          "type": "address"
        },
        {
          "internalType": "string",
          "name": "_url",
          "type": "string"
        }
      ],
      "name": "upload_image",
      "outputs": [],
      "stateMutability": "nonpayable",
      "type": "function"
    },
    {
      "inputs": [
        {
          "internalType": "address",
          "name": "",
          "type": "address"
        }
      ],
      "name": "verifiers_map",
      "outputs": [
        {
          "internalType": "bool",
          "name": "",
          "type": "bool"
        }
      ],
      "stateMutability": "view",
      "type": "function"
    },
    {
      "inputs": [
        {
          "internalType": "string",
          "name": "_url",
          "type": "string"
        },
        {
          "internalType": "bool",
          "name": "_choice",
          "type": "bool"
        }
      ],
      "name": "verify_image",
      "outputs": [],
      "stateMutability": "nonpayable",
      "type": "function"
    }
  ],
  "bytecode": "0x6080806040523461002857600080546001600160a01b03191633179055611ef4908161002e8239f35b600080fdfe608080604052600436101561001357600080fd5b60003560e01c9081631b9183181461147e575080632aa58656146113595780635912a4f7146112c95780635c3073151461128a57806361c4e799146112615780636e7a93fe146111b857806376f1d5f8146110bb578063825c407a146110195780638fdbffe714610f58578063a0639160146108a1578063a98307c6146106d5578063b8af0f79146105e5578063bad8418014610519578063bd9fe5c51461045c578063d8fbd89c146103f0578063e12ee7651461029d5763fafc5e05146100da57600080fd5b34610298576100e8366115d4565b903360005260206003815260ff6040600020541615610254576040519282519382818186019661011981838a611630565b8101600c81520301902090600582019160ff835460081c161561013857005b610147600392600483016118af565b0180546001600160a01b03191633179055805461ff00191661010017905560095492600160401b84101561023e5760018401806009558410156102285760016102219261020f60036101e6946101c7886102269a60096000527f6e1540171b6c0c960b71a7020d9f60077f6af931a8bbf590da0223dacf75c7af016118af565b3360005284845260056040600020019060405196879286840190611976565b6209090960ea1b81526101ff8a51809386840190611630565b0103601c1981018652018461155d565b336000525260056040600020016118af565b611c96565b005b634e487b7160e01b600052603260045260246000fd5b634e487b7160e01b600052604160045260246000fd5b6064906040519062461bcd60e51b82526004820152601f60248201527f796f7520617265206e6f7420736369656e7469737420746f20726576696577006044820152fd5b600080fd5b34610298576020366003190112610298576004356001600160401b0381116102985760206102d26102e592369060040161157e565b8160405193828580945193849201611630565b600c908201908152030190208054604051916001600160a01b039182169161031b8461031481600186016116b2565b038561155d565b604051906103378261033081600287016116b2565b038361155d565b600383015416916040516103598161035281600486016116b2565b038261155d565b60ff6103b76005840154956007850154936103a460096008880154970154976103966040519c8d9c8d5260208d61016091829101528d0190611653565b908b820360408d0152611653565b9160608a015288820360808a0152611653565b94818116151560a0880152818160081c16151560c088015260101c16151560e08601526101008501526101208401526101408301520390f35b34610298576020366003190112610298576004356001600160401b0381116102985761035261044461042e60206102d261045895369060040161157e565b8101600b815203019020604051928380926116b2565b604051918291602083526020830190611653565b0390f35b34610298576000366003190112610298576009546001600160401b03811161023e57604051602091610493838260051b018361155d565b80825282820160096000527f6e1540171b6c0c960b71a7020d9f60077f6af931a8bbf590da0223dacf75c7af846000925b8484106104f357506104de856104d8611d22565b90611d72565b90610458604051928284938452830190611653565b60019182916040516105098161035281896116b2565b81520192019201919085906104c4565b34610298576020366003190112610298576001600160a01b038061053b61161a565b16600052600160205260406000208054906001810154926105d66002830154916105c8600385015460405190610578826103308160048b016116b2565b6007604051946105968661058f8160058d016116b2565b038761155d565b60068901541697015495604051998a998a5260208a015260408901526060880152610100806080890152870190611653565b9085820360a0870152611653565b9160c084015260e08301520390f35b34610298576040366003190112610298576105fe61161a565b6000546001600160a01b0391906106189083163314611748565b168060005260026020526005604060002001906bffffffffffffffffffffffff60a01b9181838254161790556000604081205560006002604082200155602435600160406000200155600a602052604060002060ff199060018282541617905560046020526001604060002091825416179055600554600160401b81101561023e576001810180600555811015610228577f036b6384b5eca791c62761152d0c79bb0604c104a5fb6f4eb0703f3154bb3db0018054909216179055005b34610298576040366003190112610298576106ee61161a565b6024356001600160401b0381116102985761070d90369060040161157e565b336000526020906004825260ff604060002054161561085c576040519080519183818184019461073e818388611630565b8101600c81520301902061075582600183016118af565b80546001600160a01b03191633179055600754600160401b81101561023e578060016107849201600755611794565b9190916108465761082b6107ed61081660037f2176ff554abc6afb8a3baf0448d7ff22c25829c4aee3806c623ed36edb2b2bba986107c586610841986118af565b60018060a01b031696876000526002895281604060002001906040519485928b840190611976565b6209090960ea1b81526108068851809386840190611630565b0103601c1981018452018261155d565b846000526002865260036040600020016118af565b6040805194859485528401526040830190611653565b0390a1005b634e487b7160e01b600052600060045260246000fd5b60405162461bcd60e51b815260048101839052601f60248201527f596f7520617265206e6f7420612072656769737465726564206661726d6572006044820152606490fd5b34610298576040366003190112610298576004356001600160401b038111610298576108d190369060040161157e565b602490813515158235036102985733600052600a60205260ff6040600020541615610f1b5733600052600360205260ff6040600020541615610ed75760405160208183516109228183858801611630565b600c9082019081520301902060038101546001600160a01b0316338114610e895781546001600160a01b031690338214610e4557600683015460005b818110610dc157507f811381693377528cebff13805a15ecdd8b8745e5d843153d27b7a23ab6733e4660405183815260606020820152806109a26060820189611653565b8935151560408301520390a1600160401b811015610dac578060016109d09201600686015560068501611839565b81549060031b9060018060a01b03821b809233901b16911916179055610a6d610a28610a49601760405160208181610a0e8c83815193849201611630565b8101600b8152030190206040519384916020830190611976565b6209090960ea1b81523360601b60038201520360081981018452018261155d565b6040516020818851610a5e8183858d01611630565b8101600b8152030190206118af565b60058301805462ff00001916620100001790556007830154600181018111610c25576001016007840155843515610d90576008830154600181018111610c255760010160088401555b336000526001602052610b14610ae2610afe600360046040600020016040519384916020830190611976565b6209090960ea1b81528951906108068285830160208e01611630565b33600052600160205260046040600020016118af565b600560078401541015610b2357005b600883015460098401541015610d2a577f98447fabd9e6e9a59e9e562d0cd73d366a7debf8d288c2b2480fb475da688ca06040518381526060602082015280610b83610b726060830189611653565b8281036040840152600488016116b2565b0390a180600052600360205260ff60406000205416610cf7575b5080600052600460205260ff60406000205416610c87575b505b60005b6006820154811015610c7b57610bd38160068401611839565b60018060a01b0391549060031b1c16600883015460098401541080610c63575b15610c3a576000526001602052600260406000200190815460018101809111610c2557610c2092556119f8565b610bba565b85634e487b7160e01b60005260116004526000fd5b600052600160205260026040600020019081546000198101908111610c2557610c2092556119f8565b5080600052600360205260ff60406000205416610bf3565b50506102269150611c0a565b610cb0610cf1916002602052610cdc600360046040600020016040519485916020830190611976565b6209090960ea1b8152885190610ccc8285830160208d01611630565b0103601c1981018552018361155d565b600052600260205260046040600020016118af565b83610bb5565b6001602052600260406000200154600281018111610c255760029160005260016020520160026040600020015584610b9d565b809150600052600360205260ff60406000205416610d49575b50610bb7565b6001602052604060002060020154600119810191908211610d7b57600052600160205260026040600020015583610d43565b84634e487b7160e01b60005260116004526000fd5b6009830154600181018111610c25576001016009840155610ab6565b85634e487b7160e01b60005260416004526000fd5b610dce8160068701611839565b905460039190911b1c6001600160a01b03163314610df457610def906119f8565b61095e565b60405162461bcd60e51b8152602060048201528088018890527f596f75206861766520616c7265616479207665726966696564207468697320696044820152636d61676560e01b6064820152608490fd5b60405162461bcd60e51b815260206004820152601f818701527f596f752063616e27742076657269667920796f7572206f776e20696d616765006044820152606490fd5b60405162461bcd60e51b8152602060048201526021818601527f596f752063616e27742076657269667920796f7572206f776e20636f6d6d656e6044820152601d60fa1b6064820152608490fd5b60405162461bcd60e51b815260206004820152601a818401527f4f6e6c7920736369656e74697374732063616e207665726966790000000000006044820152606490fd5b60405162461bcd60e51b815260206004820152601681840152752cb7ba9030b932903737ba1030903b32b934b334b2b960511b6044820152606490fd5b34610298576020366003190112610298576001600160a01b0380610f7a61161a565b166000526002602052604060002080549060018101549261100a600283015491610ffc604051610fb1816103528160038a016116b2565b600660405193610fcf85610fc88160048c016116b2565b038661155d565b6005880154169601549460405198899889526020890152604088015260e0606088015260e0870190611653565b908582036080870152611653565b9160a084015260c08301520390f35b34610298576000366003190112610298576008546001600160401b03811161023e57604051602091611050838260051b018361155d565b80825282820160086000527ff3f7a9fe364faab93b216da50a3214154f22a0a2b415b23a84c8169e8b636ee3846000925b84841061109557506104de856104d8611d22565b60019182916040516110ab8161035281896116b2565b8152019201920191908590611081565b34610298576060366003190112610298576110d461161a565b6000546001600160a01b0391906110ee9083163314611748565b168060005260016020526006604060002001906bffffffffffffffffffffffff60a01b918183825416179055600260406000205560006002604082200155602435600160406000200155604435600360406000200155600a602052604060002060ff199060018282541617905560036020526001604060002091825416179055600654600160401b81101561023e576001810180600655811015610228577ff652222313e28459528d920b65115c16c04f3efc82aaedc97be59f3f377c0d3f018054909216179055005b34610298576000366003190112610298576007546001600160401b03811161023e57604051906020906111f0828260051b018461155d565b8083528183019260076000527fa66cc928b5edb82af9bd49922954155ab7b0942694bea4ce44661d9a8736c688936000905b83821061123d57846104de8585611237611d22565b90611e44565b600185819260405161125381610352818d6116b2565b815201960191019094611222565b34610298576000366003190112610298576000546040516001600160a01b039091168152602090f35b34610298576020366003190112610298576001600160a01b036112ab61161a565b16600052600a602052602060ff604060002054166040519015158152f35b3461029857600036600319011261029857604051806006549182815260208091019260066000527ff652222313e28459528d920b65115c16c04f3efc82aaedc97be59f3f377c0d3f916000905b828210611339576104588561132d8189038261155d565b604051918291826114fe565b83546001600160a01b031686529485019460019384019390910190611316565b3461029857611367366115d4565b906040519181519260208181850195611381818389611630565b8101600c81520301902090600582019060ff825416156113a5575b61022684611af9565b6113b290600284016118af565b805460ff19166001179055600854600160401b81101561023e576001810180600855811015610228576102269361146160036114769461141c876114489660086000527ff3f7a9fe364faab93b216da50a3214154f22a0a2b415b23a84c8169e8b636ee3016118af565b60018060a01b039054169283600052600260205281604060002001906040519586926020840190611976565b6209090960ea1b8152610ccc8951809386840190611630565b600052600260205260036040600020016118af565b82808061139c565b34610298576000366003190112610298576005549081815260208082019260056000527f036b6384b5eca791c62761152d0c79bb0604c104a5fb6f4eb0703f3154bb3db0916000905b8282106114de576104588561132d8189038261155d565b83546001600160a01b0316865294850194600193840193909101906114c7565b6020908160408183019282815285518094520193019160005b828110611525575050505090565b83516001600160a01b031685529381019392810192600101611517565b602081019081106001600160401b0382111761023e57604052565b90601f801991011681019081106001600160401b0382111761023e57604052565b81601f82011215610298578035906001600160401b03821161023e57604051926115b2601f8401601f19166020018561155d565b8284526020838301011161029857816000926020809301838601378301015290565b906040600319830112610298576001600160401b0360043581811161029857836116009160040161157e565b92602435918211610298576116179160040161157e565b90565b600435906001600160a01b038216820361029857565b60005b8381106116435750506000910152565b8181015183820152602001611633565b9060209161166c81518092818552858086019101611630565b601f01601f1916010190565b90600182811c921680156116a8575b602083101461169257565b634e487b7160e01b600052602260045260246000fd5b91607f1691611687565b90600092918054916116c383611678565b91828252600193848116908160001461172557506001146116e5575b50505050565b90919394506000526020928360002092846000945b8386106117115750505050010190388080806116df565b8054858701830152940193859082016116fa565b9294505050602093945060ff191683830152151560051b010190388080806116df565b1561174f57565b60405162461bcd60e51b815260206004820152601a60248201527f796f7520617265206e6f7420746865206b766b206d656d6265720000000000006044820152606490fd5b6007548110156102285760076000527fa66cc928b5edb82af9bd49922954155ab7b0942694bea4ce44661d9a8736c6880190600090565b6009548110156102285760096000527f6e1540171b6c0c960b71a7020d9f60077f6af931a8bbf590da0223dacf75c7af0190600090565b6008548110156102285760086000527ff3f7a9fe364faab93b216da50a3214154f22a0a2b415b23a84c8169e8b636ee30190600090565b80548210156102285760005260206000200190600090565b81811061185c575050565b60008155600101611851565b9190601f811161187757505050565b6118a3926000526020600020906020601f840160051c830193106118a5575b601f0160051c0190611851565b565b9091508190611896565b91909182516001600160401b03811161023e576118d6816118d08454611678565b84611868565b602080601f8311600114611912575081929394600092611907575b50508160011b916000199060031b1c1916179055565b0151905038806118f1565b90601f198316958460005282600020926000905b88821061195e57505083600195969710611945575b505050811b019055565b015160001960f88460031b161c1916905538808061193b565b80600185968294968601518155019501930190611926565b60009291815461198581611678565b926001918083169081156119dd57506001146119a15750505050565b90919293945060005260209081600020906000915b8583106119cc57505050500190388080806116df565b8054858401529183019181016119b6565b60ff19168452505050811515909102019150388080806116df565b6000198114611a075760010190565b634e487b7160e01b600052601160045260246000fd5b90808214611af557611a2f8154611678565b906001600160401b03821161023e578190611a5482611a4e8654611678565b86611868565b600090601f8311600114611a8a57600092611a7f5750508160011b916000199060031b1c1916179055565b0154905038806118f1565b81526020808220858352818320935090601f1985169083905b828210611adc575050908460019594939210611ac357505050811b019055565b015460001960f88460031b161c1916905538808061193b565b8495819295850154815560018091019601940190611aa3565b5050565b80516020809201209060005b6007805480831015611c035784610352611b2e611b2186611794565b50604051928380926116b2565b85815191012014611b49575050611b44906119f8565b611b05565b929350916000199190828101908111611a0757611b68611b6f91611794565b5091611794565b91909161084657611b7f91611a1d565b81548015611bed570191611b9283611794565b61084657611ba08154611678565b80611bac575b50505055565b600092601f808311600114611bc857505050555b388080611ba6565b8385528185208593611be3920160051c810190600101611851565b8120915555611bc0565b634e487b7160e01b600052603160045260246000fd5b5050505050565b80516020809201209060005b6009805480831015611c035784610352611c32611b21866117cb565b85815191012014611c4d575050611c48906119f8565b611c16565b929350916000199190828101908111611a0757611c6c611c73916117cb565b50916117cb565b91909161084657611c8391611a1d565b81548015611bed570191611b92836117cb565b80516020809201209060005b6008805480831015611c035784610352611cbe611b2186611802565b85815191012014611cd9575050611cd4906119f8565b611ca2565b929350916000199190828101908111611a0757611cf8611cff91611802565b5091611802565b91909161084657611d0f91611a1d565b81548015611bed570191611b9283611802565b60405190604082018281106001600160401b0382111761023e57604052600382526209090960ea1b6020830152565b8051156102285760200190565b80518210156102285760209160051b010190565b908151158015611e3c575b611e275781516014811015611e1e579190915b611d9982611d51565b51926001925b828410611dad575050505090565b90919293611e1690611e10611dc28785611d5e565b519160405180938251611ddd81602095868087019101611630565b8201885190611df182868301878d01611630565b01611e0482518093868085019101611630565b0103808452018261155d565b946119f8565b929190611d9f565b50906014611d90565b5050604051611e3581611542565b6000815290565b506000611d7d565b918251158015611eb6575b611ea75782519080821015611e9d57509190915b611e6c82611d51565b51926001925b828410611e80575050505090565b90919293611e9590611e10611dc28785611d5e565b929190611e72565b9050919091611e63565b505050604051611e3581611542565b508015611e4f56fea2646970667358221220fa69aa7491d29ed95533ee612b61cfd5cf8bf516e892458955f1120db8fd92ba64736f6c63430008110033",
  "linkReferences": {},
  "deployedLinkReferences": {}
}