{
  "_format": "hh-sol-artifact-1",
  "contractName": "Upload",
  "sourceName": "contracts/Upload.sol",
  "abi": [
    {
      "inputs": [],
      "stateMutability": "nonpayable",
      "type": "constructor"
    },
    {
      "anonymous": false,
      "inputs": [
        {
          "indexed": false,
          "internalType": "address",
          "name": "_user",
          "type": "address"
        },
        {
          "indexed": false,
          "internalType": "string",
          "name": "imageUrl",
          "type": "string"
        },
        {
          "indexed": false,
          "internalType": "string",
          "name": "review",
          "type": "string"
        }
      ],
      "name": "ImageReviewed",
      "type": "event"
    },
    {
      "anonymous": false,
      "inputs": [
        {
          "indexed": false,
          "internalType": "address",
          "name": "_user",
          "type": "address"
        },
        {
          "indexed": false,
          "internalType": "string",
          "name": "imageUrl",
          "type": "string"
        }
      ],
      "name": "ImageSubmitted",
      "type": "event"
    },
    {
      "anonymous": false,
      "inputs": [
        {
          "indexed": false,
          "internalType": "address",
          "name": "_user",
          "type": "address"
        },
        {
          "indexed": false,
          "internalType": "string",
          "name": "imageUrl",
          "type": "string"
        },
        {
          "indexed": false,
          "internalType": "bool",
          "name": "choice",
          "type": "bool"
        }
      ],
      "name": "ImageVerified",
      "type": "event"
    },
    {
      "inputs": [
        {
          "internalType": "string",
          "name": "_url",
          "type": "string"
        },
        {
          "internalType": "string",
          "name": "_solution",
          "type": "string"
        }
      ],
      "name": "AI_solution",
      "outputs": [],
      "stateMutability": "nonpayable",
      "type": "function"
    },
    {
      "inputs": [
        {
          "internalType": "address",
          "name": "",
          "type": "address"
        },
        {
          "internalType": "uint256",
          "name": "",
          "type": "uint256"
        }
      ],
      "name": "PendingImg",
      "outputs": [
        {
          "internalType": "string",
          "name": "",
          "type": "string"
        }
      ],
      "stateMutability": "view",
      "type": "function"
    },
    {
      "inputs": [
        {
          "internalType": "address",
          "name": "_farmer",
          "type": "address"
        },
        {
          "internalType": "uint256",
          "name": "_adhar_id",
          "type": "uint256"
        }
      ],
      "name": "add_farmer",
      "outputs": [],
      "stateMutability": "nonpayable",
      "type": "function"
    },
    {
      "inputs": [
        {
          "internalType": "address",
          "name": "_scientist",
          "type": "address"
        },
        {
          "internalType": "uint256",
          "name": "_adhar_id",
          "type": "uint256"
        },
        {
          "internalType": "uint256",
          "name": "_scientist_id",
          "type": "uint256"
        }
      ],
      "name": "add_scientist",
      "outputs": [],
      "stateMutability": "nonpayable",
      "type": "function"
    },
    {
      "inputs": [
        {
          "internalType": "address",
          "name": "",
          "type": "address"
        },
        {
          "internalType": "uint256",
          "name": "",
          "type": "uint256"
        }
      ],
      "name": "closeImg",
      "outputs": [
        {
          "internalType": "string",
          "name": "",
          "type": "string"
        }
      ],
      "stateMutability": "view",
      "type": "function"
    },
    {
      "inputs": [
        {
          "internalType": "address",
          "name": "_user",
          "type": "address"
        }
      ],
      "name": "display_close",
      "outputs": [
        {
          "internalType": "string[]",
          "name": "",
          "type": "string[]"
        }
      ],
      "stateMutability": "view",
      "type": "function"
    },
    {
      "inputs": [
        {
          "internalType": "address",
          "name": "_user",
          "type": "address"
        }
      ],
      "name": "display_farmer",
      "outputs": [
        {
          "components": [
            {
              "internalType": "uint256",
              "name": "level",
              "type": "uint256"
            },
            {
              "internalType": "uint256",
              "name": "adhar_id",
              "type": "uint256"
            },
            {
              "internalType": "uint256",
              "name": "auth_points",
              "type": "uint256"
            },
            {
              "internalType": "string",
              "name": "images_upload",
              "type": "string"
            },
            {
              "internalType": "string",
              "name": "image_VR",
              "type": "string"
            },
            {
              "internalType": "address",
              "name": "farmer_add",
              "type": "address"
            },
            {
              "internalType": "uint256",
              "name": "correctReportCount",
              "type": "uint256"
            }
          ],
          "internalType": "struct Upload.farmer",
          "name": "",
          "type": "tuple"
        }
      ],
      "stateMutability": "view",
      "type": "function"
    },
    {
      "inputs": [
        {
          "internalType": "address",
          "name": "_user",
          "type": "address"
        }
      ],
      "name": "display_final",
      "outputs": [
        {
          "internalType": "string[]",
          "name": "",
          "type": "string[]"
        }
      ],
      "stateMutability": "view",
      "type": "function"
    },
    {
      "inputs": [
        {
          "internalType": "address",
          "name": "_user",
          "type": "address"
        }
      ],
      "name": "display_open",
      "outputs": [
        {
          "internalType": "string[]",
          "name": "",
          "type": "string[]"
        }
      ],
      "stateMutability": "view",
      "type": "function"
    },
    {
      "inputs": [
        {
          "internalType": "string",
          "name": "_url",
          "type": "string"
        }
      ],
      "name": "display_output",
      "outputs": [
        {
          "components": [
            {
              "internalType": "uint256",
              "name": "id",
              "type": "uint256"
            },
            {
              "internalType": "address",
              "name": "owner",
              "type": "address"
            },
            {
              "internalType": "string",
              "name": "imageUrl",
              "type": "string"
            },
            {
              "internalType": "string",
              "name": "title",
              "type": "string"
            },
            {
              "internalType": "string",
              "name": "description",
              "type": "string"
            },
            {
              "internalType": "string",
              "name": "location",
              "type": "string"
            },
            {
              "internalType": "string",
              "name": "AI_sol",
              "type": "string"
            },
            {
              "internalType": "address",
              "name": "reviewer",
              "type": "address"
            },
            {
              "internalType": "string",
              "name": "reviewer_sol",
              "type": "string"
            },
            {
              "internalType": "bool",
              "name": "got_AI",
              "type": "bool"
            },
            {
              "internalType": "bool",
              "name": "reviewed",
              "type": "bool"
            },
            {
              "internalType": "bool",
              "name": "verified",
              "type": "bool"
            },
            {
              "components": [
                {
                  "internalType": "address",
                  "name": "verifier",
                  "type": "address"
                },
                {
                  "internalType": "bool",
                  "name": "choice",
                  "type": "bool"
                }
              ],
              "internalType": "struct Upload.verified_choice[]",
              "name": "verifiers",
              "type": "tuple[]"
            },
            {
              "internalType": "uint256",
              "name": "verificationCount",
              "type": "uint256"
            },
            {
              "internalType": "uint256",
              "name": "true_count",
              "type": "uint256"
            },
            {
              "internalType": "uint256",
              "name": "false_count",
              "type": "uint256"
            }
          ],
          "internalType": "struct Upload.Plant_Image",
          "name": "",
          "type": "tuple"
        }
      ],
      "stateMutability": "view",
      "type": "function"
    },
    {
      "inputs": [
        {
          "internalType": "address",
          "name": "_user",
          "type": "address"
        }
      ],
      "name": "display_scientist",
      "outputs": [
        {
          "components": [
            {
              "internalType": "uint256",
              "name": "level",
              "type": "uint256"
            },
            {
              "internalType": "uint256",
              "name": "adhar_id",
              "type": "uint256"
            },
            {
              "internalType": "uint256",
              "name": "auth_points",
              "type": "uint256"
            },
            {
              "internalType": "uint256",
              "name": "scientist_id",
              "type": "uint256"
            },
            {
              "internalType": "string",
              "name": "image_VR",
              "type": "string"
            },
            {
              "internalType": "string",
              "name": "image_rvd",
              "type": "string"
            },
            {
              "internalType": "string",
              "name": "review_accepted",
              "type": "string"
            },
            {
              "internalType": "string",
              "name": "review_rejected",
              "type": "string"
            },
            {
              "internalType": "address",
              "name": "scientist_add",
              "type": "address"
            },
            {
              "internalType": "uint256",
              "name": "correctReportCount",
              "type": "uint256"
            }
          ],
          "internalType": "struct Upload.scientist",
          "name": "",
          "type": "tuple"
        }
      ],
      "stateMutability": "view",
      "type": "function"
    },
    {
      "inputs": [
        {
          "internalType": "address",
          "name": "",
          "type": "address"
        }
      ],
      "name": "farmer_map",
      "outputs": [
        {
          "internalType": "uint256",
          "name": "level",
          "type": "uint256"
        },
        {
          "internalType": "uint256",
          "name": "adhar_id",
          "type": "uint256"
        },
        {
          "internalType": "uint256",
          "name": "auth_points",
          "type": "uint256"
        },
        {
          "internalType": "string",
          "name": "images_upload",
          "type": "string"
        },
        {
          "internalType": "string",
          "name": "image_VR",
          "type": "string"
        },
        {
          "internalType": "address",
          "name": "farmer_add",
          "type": "address"
        },
        {
          "internalType": "uint256",
          "name": "correctReportCount",
          "type": "uint256"
        }
      ],
      "stateMutability": "view",
      "type": "function"
    },
    {
      "inputs": [],
      "name": "farmers_count",
      "outputs": [
        {
          "internalType": "uint256",
          "name": "",
          "type": "uint256"
        }
      ],
      "stateMutability": "view",
      "type": "function"
    },
    {
      "inputs": [
        {
          "internalType": "address",
          "name": "",
          "type": "address"
        },
        {
          "internalType": "uint256",
          "name": "",
          "type": "uint256"
        }
      ],
      "name": "finalImg",
      "outputs": [
        {
          "internalType": "string",
          "name": "",
          "type": "string"
        }
      ],
      "stateMutability": "view",
      "type": "function"
    },
    {
      "inputs": [],
      "name": "getKvkManager",
      "outputs": [
        {
          "internalType": "address",
          "name": "",
          "type": "address"
        }
      ],
      "stateMutability": "view",
      "type": "function"
    },
    {
      "inputs": [],
      "name": "get_close_images",
      "outputs": [
        {
          "internalType": "string",
          "name": "",
          "type": "string"
        }
      ],
      "stateMutability": "view",
      "type": "function"
    },
    {
      "inputs": [],
      "name": "get_farmers",
      "outputs": [
        {
          "internalType": "address[]",
          "name": "",
          "type": "address[]"
        }
      ],
      "stateMutability": "view",
      "type": "function"
    },
    {
      "inputs": [],
      "name": "get_final_images",
      "outputs": [
        {
          "internalType": "string",
          "name": "",
          "type": "string"
        }
      ],
      "stateMutability": "view",
      "type": "function"
    },
    {
      "inputs": [],
      "name": "get_open_images",
      "outputs": [
        {
          "internalType": "string",
          "name": "",
          "type": "string"
        }
      ],
      "stateMutability": "view",
      "type": "function"
    },
    {
      "inputs": [],
      "name": "get_pending_images",
      "outputs": [
        {
          "internalType": "string",
          "name": "",
          "type": "string"
        }
      ],
      "stateMutability": "view",
      "type": "function"
    },
    {
      "inputs": [],
      "name": "get_scientists",
      "outputs": [
        {
          "internalType": "address[]",
          "name": "",
          "type": "address[]"
        }
      ],
      "stateMutability": "view",
      "type": "function"
    },
    {
      "inputs": [],
      "name": "imageCount",
      "outputs": [
        {
          "internalType": "uint256",
          "name": "",
          "type": "uint256"
        }
      ],
      "stateMutability": "view",
      "type": "function"
    },
    {
      "inputs": [
        {
          "internalType": "uint256",
          "name": "",
          "type": "uint256"
        }
      ],
      "name": "imageUrlById",
      "outputs": [
        {
          "internalType": "string",
          "name": "",
          "type": "string"
        }
      ],
      "stateMutability": "view",
      "type": "function"
    },
    {
      "inputs": [
        {
          "internalType": "string",
          "name": "",
          "type": "string"
        }
      ],
      "name": "image_verifiers",
      "outputs": [
        {
          "internalType": "string",
          "name": "",
          "type": "string"
        }
      ],
      "stateMutability": "view",
      "type": "function"
    },
    {
      "inputs": [
        {
          "internalType": "string",
          "name": "",
          "type": "string"
        }
      ],
      "name": "images",
      "outputs": [
        {
          "internalType": "uint256",
          "name": "id",
          "type": "uint256"
        },
        {
          "internalType": "address",
          "name": "owner",
          "type": "address"
        },
        {
          "internalType": "string",
          "name": "imageUrl",
          "type": "string"
        },
        {
          "internalType": "string",
          "name": "title",
          "type": "string"
        },
        {
          "internalType": "string",
          "name": "description",
          "type": "string"
        },
        {
          "internalType": "string",
          "name": "location",
          "type": "string"
        },
        {
          "internalType": "string",
          "name": "AI_sol",
          "type": "string"
        },
        {
          "internalType": "address",
          "name": "reviewer",
          "type": "address"
        },
        {
          "internalType": "string",
          "name": "reviewer_sol",
          "type": "string"
        },
        {
          "internalType": "bool",
          "name": "got_AI",
          "type": "bool"
        },
        {
          "internalType": "bool",
          "name": "reviewed",
          "type": "bool"
        },
        {
          "internalType": "bool",
          "name": "verified",
          "type": "bool"
        },
        {
          "internalType": "uint256",
          "name": "verificationCount",
          "type": "uint256"
        },
        {
          "internalType": "uint256",
          "name": "true_count",
          "type": "uint256"
        },
        {
          "internalType": "uint256",
          "name": "false_count",
          "type": "uint256"
        }
      ],
      "stateMutability": "view",
      "type": "function"
    },
    {
      "inputs": [],
      "name": "images_count",
      "outputs": [
        {
          "internalType": "uint256",
          "name": "",
          "type": "uint256"
        }
      ],
      "stateMutability": "view",
      "type": "function"
    },
    {
      "inputs": [
        {
          "internalType": "address",
          "name": "",
          "type": "address"
        },
        {
          "internalType": "uint256",
          "name": "",
          "type": "uint256"
        }
      ],
      "name": "openImg",
      "outputs": [
        {
          "internalType": "string",
          "name": "",
          "type": "string"
        }
      ],
      "stateMutability": "view",
      "type": "function"
    },
    {
      "inputs": [
        {
          "internalType": "address payable",
          "name": "user",
          "type": "address"
        }
      ],
      "name": "payUser",
      "outputs": [],
      "stateMutability": "nonpayable",
      "type": "function"
    },
    {
      "inputs": [
        {
          "internalType": "string",
          "name": "_url",
          "type": "string"
        },
        {
          "internalType": "string",
          "name": "_solution",
          "type": "string"
        }
      ],
      "name": "review_image",
      "outputs": [],
      "stateMutability": "nonpayable",
      "type": "function"
    },
    {
      "inputs": [
        {
          "internalType": "address",
          "name": "",
          "type": "address"
        }
      ],
      "name": "scientist_map",
      "outputs": [
        {
          "internalType": "uint256",
          "name": "level",
          "type": "uint256"
        },
        {
          "internalType": "uint256",
          "name": "adhar_id",
          "type": "uint256"
        },
        {
          "internalType": "uint256",
          "name": "auth_points",
          "type": "uint256"
        },
        {
          "internalType": "uint256",
          "name": "scientist_id",
          "type": "uint256"
        },
        {
          "internalType": "string",
          "name": "image_VR",
          "type": "string"
        },
        {
          "internalType": "string",
          "name": "image_rvd",
          "type": "string"
        },
        {
          "internalType": "string",
          "name": "review_accepted",
          "type": "string"
        },
        {
          "internalType": "string",
          "name": "review_rejected",
          "type": "string"
        },
        {
          "internalType": "address",
          "name": "scientist_add",
          "type": "address"
        },
        {
          "internalType": "uint256",
          "name": "correctReportCount",
          "type": "uint256"
        }
      ],
      "stateMutability": "view",
      "type": "function"
    },
    {
      "inputs": [],
      "name": "scientists_count",
      "outputs": [
        {
          "internalType": "uint256",
          "name": "",
          "type": "uint256"
        }
      ],
      "stateMutability": "view",
      "type": "function"
    },
    {
      "inputs": [],
      "name": "transactions_count",
      "outputs": [
        {
          "internalType": "uint256",
          "name": "",
          "type": "uint256"
        }
      ],
      "stateMutability": "view",
      "type": "function"
    },
    {
      "inputs": [],
      "name": "txCount",
      "outputs": [
        {
          "internalType": "uint256",
          "name": "",
          "type": "uint256"
        }
      ],
      "stateMutability": "view",
      "type": "function"
    },
    {
      "inputs": [
        {
          "internalType": "address",
          "name": "_user",
          "type": "address"
        },
        {
          "internalType": "string",
          "name": "_url",
          "type": "string"
        },
        {
          "internalType": "string",
          "name": "_title",
          "type": "string"
        },
        {
          "internalType": "string",
          "name": "_description",
          "type": "string"
        },
        {
          "internalType": "string",
          "name": "_location",
          "type": "string"
        }
      ],
      "name": "upload_image",
      "outputs": [],
      "stateMutability": "nonpayable",
      "type": "function"
    },
    {
      "inputs": [
        {
          "internalType": "address",
          "name": "",
          "type": "address"
        }
      ],
      "name": "verifiers_map",
      "outputs": [
        {
          "internalType": "bool",
          "name": "",
          "type": "bool"
        }
      ],
      "stateMutability": "view",
      "type": "function"
    },
    {
      "inputs": [
        {
          "internalType": "string",
          "name": "_url",
          "type": "string"
        },
        {
          "internalType": "bool",
          "name": "_choice",
          "type": "bool"
        }
      ],
      "name": "verify_image",
      "outputs": [],
      "stateMutability": "nonpayable",
      "type": "function"
    },
    {
      "stateMutability": "payable",
      "type": "receive"
    }
  ],
  "bytecode": "0x6080806040523461002d57600080546001600160a01b031916331790556001600d5561311990816100338239f35b600080fdfe608080604052600436101561001d575b50361561001b57600080fd5b005b60003560e01c908163052edbcc1461247f575080631236dfeb146124325780631b918318146123ae5780631fa675f0146123615780632aa58656146122515780633886b3c51461215557806339203b0f146121c05780633a1d9997146121735780633c54068714612155578063421d73cc1461211b5780635912a4f71461208b5780635aee800714611ce35780635b46b28914611bbd5780635c30731514611b7e57806361c4e79914611b5557806363cb18a214611a375780636aa4b03c146119fd5780636e7a93fe1461196657806376f1d5f8146118615780637aa4e76c1461180e578063825c407a1461177e5780638fdbffe7146116d457806392053b63146116b6578063a063916014610d7e578063a3018ae714610af4578063b3fc2eb814610ab3578063b567d6a3146108f2578063b56fd645146108d4578063b8af0f79146107d7578063bad84180146106e5578063bd9fe5c51461063a578063d8fbd89c146105dd578063db0252d51461059d578063e12ee7651461040b578063f20a325a146103c15763fafc5e05146101b6573861000f565b346103bc576101c4366127ea565b903360005260206003815260ff604060002054161561037857604051928251938281818601966101f581838a612708565b8101600e8152030190206009810160ff815460081c161561021257005b61022160019360088401612946565b60078201336001600160601b0360a01b82541617905561010061ff0019825416179055019060018060a01b038083541660005260128252610266846040600020612a0d565b60095492600160401b84101561036257600184018060095584101561034c576103256102e7610310600361001b996102c78a60119a60096000527f6e1540171b6c0c960b71a7020d9f60077f6af931a8bbf590da0223dacf75c7af01612946565b33600052600188526005604060002001906040519485928a840190612a3a565b6209090960ea1b81526103008c51809386840190612708565b0103601c19810184520182612630565b33600052600185526005604060002001612946565b6103306014546128db565b601455541660005252610347816040600020612e5e565b612dd2565b634e487b7160e01b600052603260045260246000fd5b634e487b7160e01b600052604160045260246000fd5b6064906040519062461bcd60e51b82526004820152601f60248201527f796f7520617265206e6f7420736369656e7469737420746f20726576696577006044820152fd5b600080fd5b346103bc5760203660031901126103bc576001600160a01b036103e261249a565b1660005260116020526104076103fb6040600020612f02565b6040519182918261282d565b0390f35b346103bc5760203660031901126103bc576004356001600160401b0381116103bc5761043b903690600401612794565b604051818180935160208193019161045292612708565b600e908201908152036020019020805460018201546001600160a01b039081169261047f60028201612651565b9061048c60038201612651565b61049860048301612651565b936104a560058401612651565b906104b260068501612651565b9060078501541690600885016104c790612651565b92600986015497600b87015495600c88015497600d0154986040519c8d9c8d5260208d01528b6101e06040819201528c016105019161272b565b8b810360608d01526105129161272b565b8a810360808c01526105239161272b565b89810360a08b01526105349161272b565b88810360c08a01526105459161272b565b9060e088015286810361010088015261055d9161272b565b9360ff811615156101208701528060081c60ff16151561014087015260101c60ff1615156101608601526101808501526101a08401526101c08301520390f35b346103bc5760203660031901126103bc57600435600052600f6020526104076105c96040600020612651565b60405191829160208352602083019061272b565b346103bc5760203660031901126103bc576004356001600160401b0381116103bc576105c961062b6020610618610407943690600401612794565b8160405193828580945193849201612708565b8101600c815203019020612651565b346103bc5760003660031901126103bc5760095461065781612eeb565b6106646040519182612630565b81815260209182820160096000527f6e1540171b6c0c960b71a7020d9f60077f6af931a8bbf590da0223dacf75c7af846000925b8484106106c757506106b2856106ac612f57565b90612f97565b9061040760405192828493845283019061272b565b60019182916106d585612651565b8152019201920191908590610698565b346103bc5760203660031901126103bc5760206001600160a01b038061070961249a565b166000526001825260406000208054916107c6826107b86001820154936107aa600284015461079c600386015461074260048801612651565b9061074f60058901612651565b93600961075e60068b01612651565b97600861076d60078d01612651565b9b0154169c01549a6040519e8f9e8f908152015260408d015260608c01526101408060808d01528b019061272b565b9089820360a08b015261272b565b9087820360c089015261272b565b9085820360e087015261272b565b916101008401526101208301520390f35b346103bc5760403660031901126103bc576107f061249a565b6000546001600160a01b03919061080a908316331461288f565b168060005260026020526005604060002001906001600160601b0360a01b9181838254161790556000604081205560006002604082200155602435600160406000200155600b602052604060002060ff199060018282541617905560046020526001604060002091825416179055600554600160401b81101561036257600181018060055581101561034c5760056000527f036b6384b5eca791c62761152d0c79bb0604c104a5fb6f4eb0703f3154bb3db001918254161790556108cf6014546128db565b601455005b346103bc5760003660031901126103bc576020600654604051908152f35b346103bc5760203660031901126103bc5761090b61249a565b600061012060405161091c816125f9565b82815282602082015282604082015282606082015260606080820152606060a0820152606060c0820152606060e082015282610100820152015260018060a01b03166000526001602052604060002060096040519161097a836125f9565b805483526001810154602084015260028101546040840152600381015460608401526109a860048201612651565b60808401526109b960058201612651565b60a08401526109ca60068201612651565b60c08401526109db60078201612651565b60e084015260018060a01b036008820154166101008401520154610120820152604051809160208252805160208301526020810151604083015260408101516060830152606081015160808301526080810151610120610a95610a4c610140938460a088015261016087019061272b565b610a7f610a6b60a087015192601f1993848a83030160c08b015261272b565b60c0870151838983030160e08a015261272b565b9060e0860151908783030161010088015261272b565b6101008401516001600160a01b031685830152920151908301520390f35b346103bc5760003660031901126103bc57600d546000198101908111610ade57602090604051908152f35b634e487b7160e01b600052601160045260246000fd5b346103bc5760a03660031901126103bc57610b0d61249a565b6001600160401b03906024358281116103bc57610b2e903690600401612794565b6044358381116103bc57610b46903690600401612794565b906064358481116103bc57610b5f903690600401612794565b936084359081116103bc57610b78903690600401612794565b336000526020936004855260ff6040600020541615610d395760405195835196868181870199610ba981838d612708565b8101600e81520301902091600d54600052600f875284604060002090610bce91612946565b6001600160a01b031660008181526010885260409020909590610bf2908690612a0d565b610bff8560028501612946565b6001830180546001600160a01b03191633179055610c209060038401612946565b600d548255610c329060048301612946565b60050190610c3f91612946565b600754600160401b81101561036257806001610c5e92016007556124e7565b919091610d2357610cec610cbe610cd760037f2176ff554abc6afb8a3baf0448d7ff22c25829c4aee3806c623ed36edb2b2bba98610c9f86610d1e98612946565b876000526002895281604060002001906040519485928b840190612a3a565b6209090960ea1b81526103008851809386840190612708565b84600052600286526003604060002001612946565b610cf7600d546128db565b600d55610d056014546128db565b601455604080519485948552840152604083019061272b565b0390a1005b634e487b7160e01b600052600060045260246000fd5b60405162461bcd60e51b815260048101869052601f60248201527f596f7520617265206e6f7420612072656769737465726564206661726d6572006044820152606490fd5b346103bc5760403660031901126103bc576004356001600160401b0381116103bc57610dae903690600401612794565b6024351515602435036103bc5733600052600b60205260ff60406000205416156116785733600052600360205260ff6040600020541615611633576040516020818351610dfe8183858801612708565b600e9082019081520301902060078101546001600160a01b03163381146115e45760018201546001600160a01b03169233841461159f57600a8301549360005b85811061152257507f811381693377528cebff13805a15ecdd8b8745e5d843153d27b7a23ab6733e466040518481526060602082015280610e82606082018661272b565b602435151560408301520390a1604051610e9b816125c3565b33815260243515156020820152600160401b8610156103625760018601600a860155610eca86600a8701612555565b919091610d23578051825460209283015160ff60a01b90151560a01b166001600160a01b039092166001600160a81b031990911617179091556040518351610f8692610f4192610f6292601792908290610f2781838c8601612708565b8101600c8152030190206040519384916020830190612a3a565b6209090960ea1b81523360601b600382015203600819810184520182612630565b6040516020818651610f778183858b01612708565b8101600c815203019020612946565b600b840154600181018111610ade57600101600b8501556024351561150657600c840154600181018111610ade57600101600c8501555b33600052600160205261102e610fe9611018600360046040600020016040519384916020830190612a3a565b6209090960ea1b81528751906110058285830160208c01612708565b01819003601c1981019091520182612630565b3360005260016020526004604060002001612946565b6005600b850154101561103d57005b600c840154600d8501541092831561139c577f98447fabd9e6e9a59e9e562d0cd73d366a7debf8d288c2b2480fb475da688ca0604051838152606060208201528061109f61108e606083018861272b565b828103604084015260088a01612abd565b0390a180600052600360205260ff60406000205416611307575b50600984016201000062ff00001982541617905580600052600460205260ff604060002054166112a8575b600a54600160401b811015610362576001810180600a5581101561034c578261113391600a6000527fc65a7bb8d6351c1cf70c95a316cc6a92839c986682d98bc35f958f4883f9d2a801612946565b80600052601360205261114a826040600020612a0d565b60005b8581106111c45750611185929394506111676014546128db565b60145561117382612d46565b60005260126020526040600020612e5e565b1561118c57005b600a810154906000600a820155816111a057005b600a016000526020600020908101905b8181101561001b57600081556001016111b0565b6111d181600a8701612555565b50546001600160a01b03168460ff6111ec84600a8a01612555565b505460a01c1682600052600360205260ff6040600020541661121a575b505050611215906128db565b61114d565b15150361124d576000526001602052600260406000200190815460018101809111610ade5761121592555b908488611209565b9060016020526001600260406000200154101560001461129c576002604060002001549182600019810111610ade576112159260001901905b6000526001602052600260406000200155611245565b61121591600090611286565b60026020526113026112d06112ec600360046040600020016040519384916020830190612a3a565b6209090960ea1b81528751906103008285830160208c01612708565b8260005260026020526004604060002001612946565b6110e4565b6001602052600260406000200190815490600282018211610ade5761139692600261135593019055806000526001602052611381600360066040600020016040519485916020830190612a3a565b6209090960ea1b81528851906113718285830160208d01612708565b0103601c19810185520183612630565b60005260016020526006604060002001612946565b856110b9565b80600052600360205260ff60406000205416611476575b506007840180546001600160a01b031916905560088401546113d49061256d565b601f8111611451575b50600060088501556009840162ffff001981541690556000600b8501556000600c8501556000600d850155600854600160401b8110156103625780600161142792016008556124b0565b610d23578261143591612946565b80600052601160205261144c826040600020612a0d565b61114a565b6114709060088601600052601f6020600020910160051c8101906128ea565b856113dd565b600160205260028060406000200154116000146114f85760026040600020015480600119810111610ade576114f29161135591600119015b8160005260016020526002604060002001556114dd600360076040600020016040519485916020830190612a3a565b60005260016020526007604060002001612946565b856113b3565b6113556114f29160006114ae565b600d840154600181018111610ade57600101600d850155610fbd565b61152f81600a8701612555565b50546001600160a01b0316331461154e57611549906128db565b610e3e565b60405162461bcd60e51b8152602060048201526024808201527f596f75206861766520616c7265616479207665726966696564207468697320696044820152636d61676560e01b6064820152608490fd5b60405162461bcd60e51b815260206004820152601f60248201527f596f752063616e27742076657269667920796f7572206f776e20696d616765006044820152606490fd5b60405162461bcd60e51b815260206004820152602160248201527f596f752063616e27742076657269667920796f7572206f776e20636f6d6d656e6044820152601d60fa1b6064820152608490fd5b60405162461bcd60e51b815260206004820152601a60248201527f4f6e6c7920736369656e74697374732063616e207665726966790000000000006044820152606490fd5b60405162461bcd60e51b81526020600482015260166024820152752cb7ba9030b932903737ba1030903b32b934b334b2b960511b6044820152606490fd5b346103bc5760003660031901126103bc576020600d54604051908152f35b346103bc5760203660031901126103bc576001600160a01b03806116f661249a565b166000526002602052604060002080549060018101549261176f60028301549161176161172560038601612651565b600661173360048801612651565b936005880154169601549460405198899889526020890152604088015260e0606088015260e087019061272b565b90858203608087015261272b565b9160a084015260c08301520390f35b346103bc5760003660031901126103bc5760085461179b81612eeb565b6117a86040519182612630565b81815260209182820160086000527ff3f7a9fe364faab93b216da50a3214154f22a0a2b415b23a84c8169e8b636ee3846000925b8484106117f057506106b2856106ac612f57565b60019182916117fe85612651565b81520192019201919085906117dc565b346103bc5760403660031901126103bc5761182761249a565b6001600160a01b031660009081526012602052604090208054602435908110156103bc5761185b6105c99161040793612555565b906126f7565b346103bc5760603660031901126103bc5761187a61249a565b6000546001600160a01b039190611894908316331461288f565b168060005260016020526008604060002001906001600160601b0360a01b918183825416179055600260406000205560006002604082200155602435600160406000200155604435600360406000200155600b602052604060002060ff199060018282541617905560036020526001604060002091825416179055600654600160401b81101561036257600181018060065581101561034c5760066000527ff652222313e28459528d920b65115c16c04f3efc82aaedc97be59f3f377c0d3f01918254161790556108cf6014546128db565b346103bc5760003660031901126103bc5760075461198381612eeb565b906119916040519283612630565b8082526020908183019260076000527fa66cc928b5edb82af9bd49922954155ab7b0942694bea4ce44661d9a8736c688936000905b8382106119e157846106b285856119db612f57565b90613069565b60018581926119ef89612651565b8152019601910190946119c6565b346103bc5760203660031901126103bc576001600160a01b03611a1e61249a565b1660005260126020526104076103fb6040600020612f02565b346103bc5760203660031901126103bc576004356001600160a01b038116908190036103bc578060005260016020526002604060002001908154908115611b105766038d7ea4c6800080830292830403610ade57814710611ac15760008080938193828755828215611ab8575bf115611aac57005b6040513d6000823e3d90fd5b506108fc611aa4565b60405162461bcd60e51b815260206004820152602160248201527f436f6e74726163742068617320696e73756666696369656e742062616c616e636044820152606560f81b6064820152608490fd5b60405162461bcd60e51b815260206004820152601860248201527f4e6f206175746820706f696e747320746f2072656465656d00000000000000006044820152606490fd5b346103bc5760003660031901126103bc576000546040516001600160a01b039091168152602090f35b346103bc5760203660031901126103bc576001600160a01b03611b9f61249a565b16600052600b602052602060ff604060002054166040519015158152f35b346103bc576020806003193601126103bc57611bd761249a565b600060c0604051611be7816125de565b8281528285820152826040820152606080820152606060808201528260a0820152015260018060a01b0380911660005260028252604060002060405191611c2d836125de565b81548352600182015490848401918252611cd1600284015460408601908152611cbe611c5b60038701612651565b60608801908152611c6e60048801612651565b926080890193845260068660058a0154169860a08b01998a5201549660c08a019788526040519a8b9a818c5251908b01525160408a01525160608901525160e0608089015261010088019061272b565b9051868203601f190160a088015261272b565b92511660c08401525160e08301520390f35b346103bc5760203660031901126103bc576004356001600160401b0381116103bc576020611d18611da1923690600401612794565b60006101e0604051611d29816125a7565b82815282858201526060604082015260608082015260606080820152606060a0820152606060c08201528260e082015260606101008201528261012082015282610140820152826101608201526060610180820152826101a0820152826101c082015201528160405193828580945193849201612708565b8101600e81520301902060405190611db8826125a7565b8054825260018101546001600160a01b03166020830152611ddb60028201612651565b6040830152611dec60038201612651565b6060830152611dfd60048201612651565b6080830152611e0e60058201612651565b60a0830152611e1f60068201612651565b60c083015260078101546001600160a01b031660e0830152611e4360088201612651565b61010083015260ff60098201548181161515610120850152818160081c16151561014085015260101c161515610160830152600a810154611e8381612eeb565b90611e916040519283612630565b80825260208201600a840160005260206000206000915b8383106120535786600d8787610180840152600b8101546101a0840152600c8101546101c084015201546101e0820152604051602081528151602082015260018060a01b036020830151166040820152611fa7611f7a611f64611f4e611f38611f226040880151610200606089015261022088019061272b565b6060880151878203601f1901608089015261272b565b6080870151868203601f190160a088015261272b565b60a0860151858203601f190160c087015261272b565b60c0850151848203601f190160e086015261272b565b60e08401516001600160a01b031661010084810191909152840151838203601f190161012085015261272b565b61012083015115156101408301526101408301511515610160830152610160830151151561018083015261018083015190601f19838203016101a08401526020808351928381520192019060005b818110612026575050506101e0836101a0849501516101c08501526101c08101518285015201516102008301520390f35b825180516001600160a01b0316855260209081015115158186015260409094019390920191600101611ff5565b600160208192604051612065816125c3565b60ff8654858060a01b038116835260a01c16151583820152815201920192019190611ea8565b346103bc5760003660031901126103bc57604051806006549182815260208091019260066000527ff652222313e28459528d920b65115c16c04f3efc82aaedc97be59f3f377c0d3f916000905b8282106120fb57610407856120ef81890382612630565b60405191829182612750565b83546001600160a01b0316865294850194600193840193909101906120d8565b346103bc5760203660031901126103bc576001600160a01b0361213c61249a565b1660005260136020526104076103fb6040600020612f02565b346103bc5760003660031901126103bc576020601454604051908152f35b346103bc5760403660031901126103bc5761218c61249a565b6001600160a01b031660009081526013602052604090208054602435908110156103bc5761185b6105c99161040793612555565b346103bc5760003660031901126103bc57600a546121dd81612eeb565b906121eb6040519283612630565b80825260209081830192600a6000527fc65a7bb8d6351c1cf70c95a316cc6a92839c986682d98bc35f958f4883f9d2a8936000905b83821061223557846106b285856119db612f57565b600185819261224389612651565b815201960191019094612220565b346103bc5761225f366127ea565b9060405160208183516122758183858801612708565b8101600e81520301902091600983019060ff825416156122cc575b61001b83856122a06014546128db565b6014556122ac82612c2e565b600101546001600160a01b03166000908152601060205260409020612e5e565b6122d99060068501612946565b600160ff1982541617905560018060a01b036001830154166000526011602052612307816040600020612a0d565b60085491600160401b83101561036257600183018060085583101561034c5761235a8261001b9460086000527ff3f7a9fe364faab93b216da50a3214154f22a0a2b415b23a84c8169e8b636ee301612946565b9183612290565b346103bc5760403660031901126103bc5761237a61249a565b6001600160a01b031660009081526010602052604090208054602435908110156103bc5761185b6105c99161040793612555565b346103bc5760003660031901126103bc57604051806005549182815260208091019260056000527f036b6384b5eca791c62761152d0c79bb0604c104a5fb6f4eb0703f3154bb3db0916000905b82821061241257610407856120ef81890382612630565b83546001600160a01b0316865294850194600193840193909101906123fb565b346103bc5760403660031901126103bc5761244b61249a565b6001600160a01b031660009081526011602052604090208054602435908110156103bc5761185b6105c99161040793612555565b346103bc5760003660031901126103bc576020906005548152f35b600435906001600160a01b03821682036103bc57565b60085481101561034c5760086000527ff3f7a9fe364faab93b216da50a3214154f22a0a2b415b23a84c8169e8b636ee30190600090565b60075481101561034c5760076000527fa66cc928b5edb82af9bd49922954155ab7b0942694bea4ce44661d9a8736c6880190600090565b60095481101561034c5760096000527f6e1540171b6c0c960b71a7020d9f60077f6af931a8bbf590da0223dacf75c7af0190600090565b805482101561034c5760005260206000200190600090565b90600182811c9216801561259d575b602083101461258757565b634e487b7160e01b600052602260045260246000fd5b91607f169161257c565b61020081019081106001600160401b0382111761036257604052565b604081019081106001600160401b0382111761036257604052565b60e081019081106001600160401b0382111761036257604052565b61014081019081106001600160401b0382111761036257604052565b602081019081106001600160401b0382111761036257604052565b90601f801991011681019081106001600160401b0382111761036257604052565b90604051918260008254926126658461256d565b9081845260019485811690816000146126d45750600114612691575b505061268f92500383612630565b565b9093915060005260209081600020936000915b8183106126bc57505061268f93508201013880612681565b855488840185015294850194879450918301916126a4565b91505061268f94506020925060ff191682840152151560051b8201013880612681565b90610d235761270590612651565b90565b60005b83811061271b5750506000910152565b818101518382015260200161270b565b9060209161274481518092818552858086019101612708565b601f01601f1916010190565b6020908160408183019282815285518094520193019160005b828110612777575050505090565b83516001600160a01b031685529381019392810192600101612769565b81601f820112156103bc578035906001600160401b03821161036257604051926127c8601f8401601f191660200185612630565b828452602083830101116103bc57816000926020809301838601378301015290565b9060406003198301126103bc576001600160401b036004358181116103bc578361281691600401612794565b926024359182116103bc5761270591600401612794565b602080820190808352835180925260408301928160408460051b8301019501936000915b8483106128615750505050505090565b909192939495848061287f600193603f198682030187528a5161272b565b9801930193019194939290612851565b1561289657565b60405162461bcd60e51b815260206004820152601a60248201527f796f7520617265206e6f7420746865206b766b206d656d6265720000000000006044820152606490fd5b6000198114610ade5760010190565b8181106128f5575050565b600081556001016128ea565b9190601f811161291057505050565b61268f926000526020600020906020601f840160051c8301931061293c575b601f0160051c01906128ea565b909150819061292f565b91909182516001600160401b0381116103625761296d81612967845461256d565b84612901565b602080601f83116001146129a957508192939460009261299e575b50508160011b916000199060031b1c1916179055565b015190503880612988565b90601f198316958460005282600020926000905b8882106129f5575050836001959697106129dc575b505050811b019055565b015160001960f88460031b161c191690553880806129d2565b806001859682949686015181550195019301906129bd565b8054600160401b81101561036257612a2a91600182018155612555565b919091610d235761268f91612946565b600092918154612a498161256d565b92600191808316908115612aa25750600114612a66575b50505050565b90919293945060005260209081600020906000915b858310612a915750505050019038808080612a60565b805485840152918301918101612a7b565b60ff1916845250505081151590910201915038808080612a60565b9060009291805491612ace8361256d565b918282526001938481169081600014612b2f5750600114612aef5750505050565b90919394506000526020928360002092846000945b838610612b1b575050505001019038808080612a60565b805485870183015294019385908201612b04565b9294505050602093945060ff191683830152151560051b01019038808080612a60565b90808214612c2a57612b64815461256d565b906001600160401b038211610362578190612b8982612b83865461256d565b86612901565b600090601f8311600114612bbf57600092612bb45750508160011b916000199060031b1c1916179055565b015490503880612988565b81526020808220858352818320935090601f1985169083905b828210612c11575050908460019594939210612bf857505050811b019055565b015460001960f88460031b161c191690553880806129d2565b8495819295850154815560018091019601940190612bd8565b5050565b80516020809201209060005b6007805480831015612d3f5784612c63612c6a612c56866124e7565b5060405192838092612abd565b0382612630565b85815191012014612c85575050612c80906128db565b612c3a565b929350916000199190828101908111610ade57612ca4612cab916124e7565b50916124e7565b919091610d2357612cbb91612b52565b81548015612d29570191612cce836124e7565b610d2357612cdc815461256d565b80612ce8575b50505055565b600092601f808311600114612d0457505050555b388080612ce2565b8385528185208593612d1f920160051c8101906001016128ea565b8120915555612cfc565b634e487b7160e01b600052603160045260246000fd5b5050505050565b80516020809201209060005b6009805480831015612d3f5784612c63612d6e612c568661251e565b85815191012014612d89575050612d84906128db565b612d52565b929350916000199190828101908111610ade57612da8612daf9161251e565b509161251e565b919091610d2357612dbf91612b52565b81548015612d29570191612cce8361251e565b80516020809201209060005b6008805480831015612d3f5784612c63612dfa612c56866124b0565b85815191012014612e15575050612e10906128db565b612dde565b929350916000199190828101908111610ade57612e34612e3b916124b0565b50916124b0565b919091610d2357612e4b91612b52565b81548015612d29570191612cce836124b0565b9080516020809201209160005b815480821015612d3f5784612c63612e86612c568587612555565b85815191012014612ea05750612e9b906128db565b612e6b565b9192935060001991828101908111610ade57612ebf612ec79185612555565b509184612555565b919091610d2357612ed791612b52565b81548015612d29570191612cce8383612555565b6001600160401b0381116103625760051b60200190565b908154612f0e81612eeb565b92612f1c6040519485612630565b818452600090815260208082208186015b848410612f3b575050505050565b6001838192612f4985612651565b815201920193019290612f2d565b60405190612f64826125c3565b600382526209090960ea1b6020830152565b80511561034c5760200190565b805182101561034c5760209160051b010190565b908151158015613061575b61304c5781516014811015613043579190915b612fbe82612f76565b51926001925b828410612fd2575050505090565b9091929361303b90613035612fe78785612f83565b51916040518093825161300281602095868087019101612708565b820188519061301682868301878d01612708565b0161302982518093868085019101612708565b01038084520182612630565b946128db565b929190612fc4565b50906014612fb5565b505060405161305a81612615565b6000815290565b506000612fa2565b9182511580156130db575b6130cc57825190808210156130c257509190915b61309182612f76565b51926001925b8284106130a5575050505090565b909192936130ba90613035612fe78785612f83565b929190613097565b9050919091613088565b50505060405161305a81612615565b50801561307456fea26469706673582212202b1f93d85613b2e2a521f45ff03c132be43f016951e156de026f6be3b343956664736f6c63430008110033",
  "linkReferences": {},
  "deployedLinkReferences": {}
}