{
  "_format": "hh-sol-artifact-1",
  "contractName": "Upload",
  "sourceName": "contracts/Upload.sol",
  "abi": [
    {
      "inputs": [],
      "stateMutability": "nonpayable",
      "type": "constructor"
    },
    {
      "anonymous": false,
      "inputs": [
        {
          "indexed": false,
          "internalType": "address",
          "name": "_user",
          "type": "address"
        },
        {
          "indexed": false,
          "internalType": "string",
          "name": "imageUrl",
          "type": "string"
        },
        {
          "indexed": false,
          "internalType": "string",
          "name": "review",
          "type": "string"
        }
      ],
      "name": "ImageReviewed",
      "type": "event"
    },
    {
      "anonymous": false,
      "inputs": [
        {
          "indexed": false,
          "internalType": "address",
          "name": "_user",
          "type": "address"
        },
        {
          "indexed": false,
          "internalType": "string",
          "name": "imageUrl",
          "type": "string"
        }
      ],
      "name": "ImageSubmitted",
      "type": "event"
    },
    {
      "anonymous": false,
      "inputs": [
        {
          "indexed": false,
          "internalType": "address",
          "name": "_user",
          "type": "address"
        },
        {
          "indexed": false,
          "internalType": "string",
          "name": "imageUrl",
          "type": "string"
        },
        {
          "indexed": false,
          "internalType": "bool",
          "name": "choice",
          "type": "bool"
        }
      ],
      "name": "ImageVerified",
      "type": "event"
    },
    {
      "inputs": [
        {
          "internalType": "string",
          "name": "_url",
          "type": "string"
        },
        {
          "internalType": "string",
          "name": "_solution",
          "type": "string"
        }
      ],
      "name": "AI_solution",
      "outputs": [],
      "stateMutability": "nonpayable",
      "type": "function"
    },
    {
      "inputs": [
        {
          "internalType": "address",
          "name": "",
          "type": "address"
        },
        {
          "internalType": "uint256",
          "name": "",
          "type": "uint256"
        }
      ],
      "name": "PendingImg",
      "outputs": [
        {
          "internalType": "string",
          "name": "",
          "type": "string"
        }
      ],
      "stateMutability": "view",
      "type": "function"
    },
    {
      "inputs": [
        {
          "internalType": "address",
          "name": "_farmer",
          "type": "address"
        },
        {
          "internalType": "uint256",
          "name": "_adhar_id",
          "type": "uint256"
        }
      ],
      "name": "add_farmer",
      "outputs": [],
      "stateMutability": "nonpayable",
      "type": "function"
    },
    {
      "inputs": [
        {
          "internalType": "address",
          "name": "_scientist",
          "type": "address"
        },
        {
          "internalType": "uint256",
          "name": "_adhar_id",
          "type": "uint256"
        },
        {
          "internalType": "uint256",
          "name": "_scientist_id",
          "type": "uint256"
        }
      ],
      "name": "add_scientist",
      "outputs": [],
      "stateMutability": "nonpayable",
      "type": "function"
    },
    {
      "inputs": [
        {
          "internalType": "address",
          "name": "",
          "type": "address"
        },
        {
          "internalType": "uint256",
          "name": "",
          "type": "uint256"
        }
      ],
      "name": "closeImg",
      "outputs": [
        {
          "internalType": "string",
          "name": "",
          "type": "string"
        }
      ],
      "stateMutability": "view",
      "type": "function"
    },
    {
      "inputs": [
        {
          "internalType": "address",
          "name": "_user",
          "type": "address"
        }
      ],
      "name": "display_close",
      "outputs": [
        {
          "internalType": "string[]",
          "name": "",
          "type": "string[]"
        }
      ],
      "stateMutability": "view",
      "type": "function"
    },
    {
      "inputs": [
        {
          "internalType": "address",
          "name": "_user",
          "type": "address"
        }
      ],
      "name": "display_farmer",
      "outputs": [
        {
          "components": [
            {
              "internalType": "uint256",
              "name": "level",
              "type": "uint256"
            },
            {
              "internalType": "uint256",
              "name": "adhar_id",
              "type": "uint256"
            },
            {
              "internalType": "uint256",
              "name": "auth_points",
              "type": "uint256"
            },
            {
              "internalType": "string",
              "name": "images_upload",
              "type": "string"
            },
            {
              "internalType": "string",
              "name": "image_VR",
              "type": "string"
            },
            {
              "internalType": "address",
              "name": "farmer_add",
              "type": "address"
            },
            {
              "internalType": "uint256",
              "name": "correctReportCount",
              "type": "uint256"
            }
          ],
          "internalType": "struct Upload.farmer",
          "name": "",
          "type": "tuple"
        }
      ],
      "stateMutability": "view",
      "type": "function"
    },
    {
      "inputs": [
        {
          "internalType": "address",
          "name": "_user",
          "type": "address"
        }
      ],
      "name": "display_final",
      "outputs": [
        {
          "internalType": "string[]",
          "name": "",
          "type": "string[]"
        }
      ],
      "stateMutability": "view",
      "type": "function"
    },
    {
      "inputs": [
        {
          "internalType": "address",
          "name": "_user",
          "type": "address"
        }
      ],
      "name": "display_open",
      "outputs": [
        {
          "internalType": "string[]",
          "name": "",
          "type": "string[]"
        }
      ],
      "stateMutability": "view",
      "type": "function"
    },
    {
      "inputs": [
        {
          "internalType": "string",
          "name": "_url",
          "type": "string"
        }
      ],
      "name": "display_output",
      "outputs": [
        {
          "components": [
            {
              "internalType": "address",
              "name": "owner",
              "type": "address"
            },
            {
              "internalType": "string",
              "name": "imageUrl",
              "type": "string"
            },
            {
              "internalType": "string",
              "name": "title",
              "type": "string"
            },
            {
              "internalType": "string",
              "name": "description",
              "type": "string"
            },
            {
              "internalType": "string",
              "name": "location",
              "type": "string"
            },
            {
              "internalType": "string",
              "name": "AI_sol",
              "type": "string"
            },
            {
              "internalType": "address",
              "name": "reviewer",
              "type": "address"
            },
            {
              "internalType": "string",
              "name": "reviewer_sol",
              "type": "string"
            },
            {
              "internalType": "bool",
              "name": "got_AI",
              "type": "bool"
            },
            {
              "internalType": "bool",
              "name": "reviewed",
              "type": "bool"
            },
            {
              "internalType": "bool",
              "name": "verified",
              "type": "bool"
            },
            {
              "internalType": "address[]",
              "name": "verifiers",
              "type": "address[]"
            },
            {
              "internalType": "uint256",
              "name": "verificationCount",
              "type": "uint256"
            },
            {
              "internalType": "uint256",
              "name": "true_count",
              "type": "uint256"
            },
            {
              "internalType": "uint256",
              "name": "false_count",
              "type": "uint256"
            }
          ],
          "internalType": "struct Upload.Plant_Image",
          "name": "",
          "type": "tuple"
        }
      ],
      "stateMutability": "view",
      "type": "function"
    },
    {
      "inputs": [
        {
          "internalType": "address",
          "name": "_user",
          "type": "address"
        }
      ],
      "name": "display_scientist",
      "outputs": [
        {
          "components": [
            {
              "internalType": "uint256",
              "name": "level",
              "type": "uint256"
            },
            {
              "internalType": "uint256",
              "name": "adhar_id",
              "type": "uint256"
            },
            {
              "internalType": "uint256",
              "name": "auth_points",
              "type": "uint256"
            },
            {
              "internalType": "uint256",
              "name": "scientist_id",
              "type": "uint256"
            },
            {
              "internalType": "string",
              "name": "image_VR",
              "type": "string"
            },
            {
              "internalType": "string",
              "name": "image_rvd",
              "type": "string"
            },
            {
              "internalType": "string",
              "name": "review_accepted",
              "type": "string"
            },
            {
              "internalType": "string",
              "name": "review_rejected",
              "type": "string"
            },
            {
              "internalType": "address",
              "name": "scientist_add",
              "type": "address"
            },
            {
              "internalType": "uint256",
              "name": "correctReportCount",
              "type": "uint256"
            }
          ],
          "internalType": "struct Upload.scientist",
          "name": "",
          "type": "tuple"
        }
      ],
      "stateMutability": "view",
      "type": "function"
    },
    {
      "inputs": [
        {
          "internalType": "address",
          "name": "",
          "type": "address"
        }
      ],
      "name": "farmer_map",
      "outputs": [
        {
          "internalType": "uint256",
          "name": "level",
          "type": "uint256"
        },
        {
          "internalType": "uint256",
          "name": "adhar_id",
          "type": "uint256"
        },
        {
          "internalType": "uint256",
          "name": "auth_points",
          "type": "uint256"
        },
        {
          "internalType": "string",
          "name": "images_upload",
          "type": "string"
        },
        {
          "internalType": "string",
          "name": "image_VR",
          "type": "string"
        },
        {
          "internalType": "address",
          "name": "farmer_add",
          "type": "address"
        },
        {
          "internalType": "uint256",
          "name": "correctReportCount",
          "type": "uint256"
        }
      ],
      "stateMutability": "view",
      "type": "function"
    },
    {
      "inputs": [],
      "name": "farmers_count",
      "outputs": [
        {
          "internalType": "uint256",
          "name": "",
          "type": "uint256"
        }
      ],
      "stateMutability": "view",
      "type": "function"
    },
    {
      "inputs": [
        {
          "internalType": "address",
          "name": "",
          "type": "address"
        },
        {
          "internalType": "uint256",
          "name": "",
          "type": "uint256"
        }
      ],
      "name": "finalImg",
      "outputs": [
        {
          "internalType": "string",
          "name": "",
          "type": "string"
        }
      ],
      "stateMutability": "view",
      "type": "function"
    },
    {
      "inputs": [],
      "name": "getKvkManager",
      "outputs": [
        {
          "internalType": "address",
          "name": "",
          "type": "address"
        }
      ],
      "stateMutability": "view",
      "type": "function"
    },
    {
      "inputs": [],
      "name": "get_close_images",
      "outputs": [
        {
          "internalType": "string",
          "name": "",
          "type": "string"
        }
      ],
      "stateMutability": "view",
      "type": "function"
    },
    {
      "inputs": [],
      "name": "get_farmers",
      "outputs": [
        {
          "internalType": "address[]",
          "name": "",
          "type": "address[]"
        }
      ],
      "stateMutability": "view",
      "type": "function"
    },
    {
      "inputs": [],
      "name": "get_final_images",
      "outputs": [
        {
          "internalType": "string",
          "name": "",
          "type": "string"
        }
      ],
      "stateMutability": "view",
      "type": "function"
    },
    {
      "inputs": [],
      "name": "get_open_images",
      "outputs": [
        {
          "internalType": "string",
          "name": "",
          "type": "string"
        }
      ],
      "stateMutability": "view",
      "type": "function"
    },
    {
      "inputs": [],
      "name": "get_pending_images",
      "outputs": [
        {
          "internalType": "string",
          "name": "",
          "type": "string"
        }
      ],
      "stateMutability": "view",
      "type": "function"
    },
    {
      "inputs": [],
      "name": "get_scientists",
      "outputs": [
        {
          "internalType": "address[]",
          "name": "",
          "type": "address[]"
        }
      ],
      "stateMutability": "view",
      "type": "function"
    },
    {
      "inputs": [],
      "name": "imageCount",
      "outputs": [
        {
          "internalType": "uint256",
          "name": "",
          "type": "uint256"
        }
      ],
      "stateMutability": "view",
      "type": "function"
    },
    {
      "inputs": [
        {
          "internalType": "string",
          "name": "",
          "type": "string"
        }
      ],
      "name": "image_verifiers",
      "outputs": [
        {
          "internalType": "string",
          "name": "",
          "type": "string"
        }
      ],
      "stateMutability": "view",
      "type": "function"
    },
    {
      "inputs": [
        {
          "internalType": "string",
          "name": "",
          "type": "string"
        }
      ],
      "name": "images",
      "outputs": [
        {
          "internalType": "address",
          "name": "owner",
          "type": "address"
        },
        {
          "internalType": "string",
          "name": "imageUrl",
          "type": "string"
        },
        {
          "internalType": "string",
          "name": "title",
          "type": "string"
        },
        {
          "internalType": "string",
          "name": "description",
          "type": "string"
        },
        {
          "internalType": "string",
          "name": "location",
          "type": "string"
        },
        {
          "internalType": "string",
          "name": "AI_sol",
          "type": "string"
        },
        {
          "internalType": "address",
          "name": "reviewer",
          "type": "address"
        },
        {
          "internalType": "string",
          "name": "reviewer_sol",
          "type": "string"
        },
        {
          "internalType": "bool",
          "name": "got_AI",
          "type": "bool"
        },
        {
          "internalType": "bool",
          "name": "reviewed",
          "type": "bool"
        },
        {
          "internalType": "bool",
          "name": "verified",
          "type": "bool"
        },
        {
          "internalType": "uint256",
          "name": "verificationCount",
          "type": "uint256"
        },
        {
          "internalType": "uint256",
          "name": "true_count",
          "type": "uint256"
        },
        {
          "internalType": "uint256",
          "name": "false_count",
          "type": "uint256"
        }
      ],
      "stateMutability": "view",
      "type": "function"
    },
    {
      "inputs": [],
      "name": "images_count",
      "outputs": [
        {
          "internalType": "uint256",
          "name": "",
          "type": "uint256"
        }
      ],
      "stateMutability": "view",
      "type": "function"
    },
    {
      "inputs": [
        {
          "internalType": "address",
          "name": "",
          "type": "address"
        },
        {
          "internalType": "uint256",
          "name": "",
          "type": "uint256"
        }
      ],
      "name": "openImg",
      "outputs": [
        {
          "internalType": "string",
          "name": "",
          "type": "string"
        }
      ],
      "stateMutability": "view",
      "type": "function"
    },
    {
      "inputs": [
        {
          "internalType": "address payable",
          "name": "user",
          "type": "address"
        }
      ],
      "name": "payUser",
      "outputs": [],
      "stateMutability": "nonpayable",
      "type": "function"
    },
    {
      "inputs": [
        {
          "internalType": "string",
          "name": "_url",
          "type": "string"
        },
        {
          "internalType": "string",
          "name": "_solution",
          "type": "string"
        }
      ],
      "name": "review_image",
      "outputs": [],
      "stateMutability": "nonpayable",
      "type": "function"
    },
    {
      "inputs": [
        {
          "internalType": "address",
          "name": "",
          "type": "address"
        }
      ],
      "name": "scientist_map",
      "outputs": [
        {
          "internalType": "uint256",
          "name": "level",
          "type": "uint256"
        },
        {
          "internalType": "uint256",
          "name": "adhar_id",
          "type": "uint256"
        },
        {
          "internalType": "uint256",
          "name": "auth_points",
          "type": "uint256"
        },
        {
          "internalType": "uint256",
          "name": "scientist_id",
          "type": "uint256"
        },
        {
          "internalType": "string",
          "name": "image_VR",
          "type": "string"
        },
        {
          "internalType": "string",
          "name": "image_rvd",
          "type": "string"
        },
        {
          "internalType": "string",
          "name": "review_accepted",
          "type": "string"
        },
        {
          "internalType": "string",
          "name": "review_rejected",
          "type": "string"
        },
        {
          "internalType": "address",
          "name": "scientist_add",
          "type": "address"
        },
        {
          "internalType": "uint256",
          "name": "correctReportCount",
          "type": "uint256"
        }
      ],
      "stateMutability": "view",
      "type": "function"
    },
    {
      "inputs": [],
      "name": "scientists_count",
      "outputs": [
        {
          "internalType": "uint256",
          "name": "",
          "type": "uint256"
        }
      ],
      "stateMutability": "view",
      "type": "function"
    },
    {
      "inputs": [],
      "name": "transactions_count",
      "outputs": [
        {
          "internalType": "uint256",
          "name": "",
          "type": "uint256"
        }
      ],
      "stateMutability": "view",
      "type": "function"
    },
    {
      "inputs": [],
      "name": "txCount",
      "outputs": [
        {
          "internalType": "uint256",
          "name": "",
          "type": "uint256"
        }
      ],
      "stateMutability": "view",
      "type": "function"
    },
    {
      "inputs": [
        {
          "internalType": "address",
          "name": "_user",
          "type": "address"
        },
        {
          "internalType": "string",
          "name": "_url",
          "type": "string"
        },
        {
          "internalType": "string",
          "name": "_title",
          "type": "string"
        },
        {
          "internalType": "string",
          "name": "_description",
          "type": "string"
        },
        {
          "internalType": "string",
          "name": "_location",
          "type": "string"
        }
      ],
      "name": "upload_image",
      "outputs": [],
      "stateMutability": "nonpayable",
      "type": "function"
    },
    {
      "inputs": [
        {
          "internalType": "address",
          "name": "",
          "type": "address"
        }
      ],
      "name": "verifiers_map",
      "outputs": [
        {
          "internalType": "bool",
          "name": "",
          "type": "bool"
        }
      ],
      "stateMutability": "view",
      "type": "function"
    },
    {
      "inputs": [
        {
          "internalType": "string",
          "name": "_url",
          "type": "string"
        },
        {
          "internalType": "bool",
          "name": "_choice",
          "type": "bool"
        }
      ],
      "name": "verify_image",
      "outputs": [],
      "stateMutability": "nonpayable",
      "type": "function"
    },
    {
      "stateMutability": "payable",
      "type": "receive"
    }
  ],
  "bytecode": "0x6080806040523461002857600080546001600160a01b03191633179055612f51908161002e8239f35b600080fdfe608080604052600436101561001d575b50361561001b57600080fd5b005b60003560e01c908163052edbcc146122b0575080631236dfeb146122635780631b918318146121df5780631fa675f0146121925780632aa58656146120cf5780633886b3c514611fc957806339203b0f146120345780633a1d999714611fe75780633c54068714611fc9578063421d73cc14611f8f5780635912a4f714611eff5780635aee800714611ba05780635b46b28914611a7a5780635c30731514611a3b57806361c4e79914611a1257806363cb18a2146118f45780636aa4b03c146118ba5780636e7a93fe1461181957806376f1d5f8146117145780637aa4e76c146116c1578063825c407a146116275780638fdbffe71461157d57806392053b6314610a7d578063a063916014610d01578063a3018ae714610a9b578063b3fc2eb814610a7d578063b567d6a3146108bc578063b56fd6451461089e578063b8af0f79146107a1578063bad84180146106af578063bd9fe5c5146105fa578063d8fbd89c14610589578063e12ee76514610403578063f20a325a146103b95763fafc5e05146101ab573861000f565b346103b4576101b936612600565b90336000526020916003835260ff604060002054161561036f57604051928251938181818601966101eb81838a61251e565b8101600d81520301902091600883019060ff825460081c161561020a57005b610217906007850161275c565b6006830180546001600160a01b03191633179055805461ff00191661010017905581546001600160a01b039081166000908152601083526040902061025d908590612852565b60095492600160401b8410156103595760018401806009558410156103435761031c6102de610307600361001b996102be8a600f9a60096000527f6e1540171b6c0c960b71a7020d9f60077f6af931a8bbf590da0223dacf75c7af0161275c565b33600052600188526005604060002001906040519485928a84019061286f565b6209090960ea1b81526102f78c5180938684019061251e565b0103601c19810184520182612446565b3360005260018552600560406000200161275c565b6103276013546126f1565b60135554166000525261033e816040600020612c93565b612c07565b634e487b7160e01b600052603260045260246000fd5b634e487b7160e01b600052604160045260246000fd5b60405162461bcd60e51b815260048101849052601f60248201527f796f7520617265206e6f7420736369656e7469737420746f20726576696577006044820152606490fd5b600080fd5b346103b45760203660031901126103b4576001600160a01b036103da6122cb565b16600052600f6020526103ff6103f36040600020612d20565b60405191829182612643565b0390f35b346103b45760203660031901126103b4576004356001600160401b0381116103b4576104339036906004016125aa565b604051818180935160208193019161044a9261251e565b600d90820190815203602001902080546001600160a01b039081169061047260018401612467565b9261047f60028201612467565b9061048c60038201612467565b61049860048301612467565b936104a560058401612467565b90600684015416600784016104b990612467565b91600885015496600a86015494600b87015496600c0154976040519b8c9b8c528b6101c06020819201528c016104ee91612541565b8b810360408d01526104ff91612541565b8a810360608c015261051091612541565b89810360808b015261052191612541565b88810360a08a015261053291612541565b9060c088015286810360e088015261054991612541565b9360ff811615156101008701528060081c60ff16151561012087015260101c60ff1615156101408601526101608501526101808401526101a08301520390f35b346103b45760203660031901126103b4576004356001600160401b0381116103b4576105e66105d760206105c46103ff9436906004016125aa565b816040519382858094519384920161251e565b8101600c815203019020612467565b604051918291602083526020830190612541565b346103b45760003660031901126103b4576009546001600160401b03811161035957604051602091610631838260051b0183612446565b80825282820160096000527f6e1540171b6c0c960b71a7020d9f60077f6af931a8bbf590da0223dacf75c7af846000925b848410610691575061067c85610676612d7f565b90612dcf565b906103ff604051928284938452830190612541565b600191829161069f85612467565b8152019201920191908590610662565b346103b45760203660031901126103b45760206001600160a01b03806106d36122cb565b16600052600182526040600020805491610790826107826001820154936107746002840154610766600386015461070c60048801612467565b9061071960058901612467565b93600961072860068b01612467565b97600861073760078d01612467565b9b0154169c01549a6040519e8f9e8f908152015260408d015260608c01526101408060808d01528b0190612541565b9089820360a08b0152612541565b9087820360c0890152612541565b9085820360e0870152612541565b916101008401526101208301520390f35b346103b45760403660031901126103b4576107ba6122cb565b6000546001600160a01b0391906107d490831633146126a5565b168060005260026020526005604060002001906001600160601b0360a01b9181838254161790556000604081205560006002604082200155602435600160406000200155600b602052604060002060ff199060018282541617905560046020526001604060002091825416179055600554600160401b8110156103595760018101806005558110156103435760056000527f036b6384b5eca791c62761152d0c79bb0604c104a5fb6f4eb0703f3154bb3db001918254161790556108996013546126f1565b601355005b346103b45760003660031901126103b4576020600654604051908152f35b346103b45760203660031901126103b4576108d56122cb565b60006101206040516108e68161240f565b82815282602082015282604082015282606082015260606080820152606060a0820152606060c0820152606060e082015282610100820152015260018060a01b0316600052600160205260406000206009604051916109448361240f565b8054835260018101546020840152600281015460408401526003810154606084015261097260048201612467565b608084015261098360058201612467565b60a084015261099460068201612467565b60c08401526109a560078201612467565b60e084015260018060a01b036008820154166101008401520154610120820152604051809160208252805160208301526020810151604083015260408101516060830152606081015160808301526080810151610120610a5f610a16610140938460a0880152610160870190612541565b610a49610a3560a087015192601f1993848a83030160c08b0152612541565b60c0870151838983030160e08a0152612541565b9060e08601519087830301610100880152612541565b6101008401516001600160a01b031685830152920151908301520390f35b346103b45760003660031901126103b4576020601254604051908152f35b346103b45760a03660031901126103b457610ab46122cb565b6001600160401b03906024358281116103b457610ad59036906004016125aa565b6044358381116103b457610aed9036906004016125aa565b906064358481116103b457610b069036906004016125aa565b936084359081116103b457610b1f9036906004016125aa565b336000526020936004855260ff6040600020541615610cbc5760405195835196868181870199610b5081838d61251e565b8101600d81520301902091600160a01b60019003169485600052600e875284604060002090610b7e91612852565b610b8b856001850161275c565b82546001600160a01b03191633178355610ba8906002840161275c565b610bb5906003830161275c565b60040190610bc29161275c565b600754600160401b81101561035957806001610be192016007556122e1565b919091610ca657610c6f610c41610c5a60037f2176ff554abc6afb8a3baf0448d7ff22c25829c4aee3806c623ed36edb2b2bba98610c2286610ca19861275c565b876000526002895281604060002001906040519485928b84019061286f565b6209090960ea1b81526102f7885180938684019061251e565b8460005260028652600360406000200161275c565b610c7a6012546126f1565b601255610c886013546126f1565b6013556040805194859485528401526040830190612541565b0390a1005b634e487b7160e01b600052600060045260246000fd5b60405162461bcd60e51b815260048101869052601f60248201527f596f7520617265206e6f7420612072656769737465726564206661726d6572006044820152606490fd5b346103b45760403660031901126103b4576004356001600160401b0381116103b457610d319036906004016125aa565b6024351515602435036103b45733600052600b60205260ff604060002054161561153f5733600052600360205260ff60406000205416156114fa576040516020818351610d81818385880161251e565b600d9082019081520301902060068101546001600160a01b03163381146114ab5781546001600160a01b03169033821461146657600983015460005b8181106113e257507f811381693377528cebff13805a15ecdd8b8745e5d843153d27b7a23ab6733e466040518381526060602082015280610e016060820189612541565b602435151560408301520390a1600160401b81101561035957806001610e309201600986015560098501612386565b81549060031b9060018060a01b03821b809233901b16911916179055610ecd610e88610ea9601760405160208181610e6e8c8381519384920161251e565b8101600c815203019020604051938491602083019061286f565b6209090960ea1b81523360601b600382015203600819810184520182612446565b6040516020818851610ebe8183858d0161251e565b8101600c81520301902061275c565b600a8301546001810181116110f457600101600a840155602435156113c657600b8301546001810181116110f457600101600b8401555b336000526001602052610f62610f30610f4c60036004604060002001604051938491602083019061286f565b6209090960ea1b81528951906102f78285830160208e0161251e565b336000526001602052600460406000200161275c565b6005600a8401541015610f7157005b600b830154600c840154101561126a577f98447fabd9e6e9a59e9e562d0cd73d366a7debf8d288c2b2480fb475da688ca06040518381526060602082015280610fd1610fc06060830189612541565b8281036040840152600788016128f2565b0390a180600052600360205260ff604060002054166111f5575b50600882016201000062ff00001982541617905580600052600460205260ff60406000205416611185575b50600a54600160401b811015610359576001810180600a55811015610343578261106691600a6000527fc65a7bb8d6351c1cf70c95a316cc6a92839c986682d98bc35f958f4883f9d2a80161275c565b60018060a01b038154166000526011602052611086826040600020612852565b60005b600982015481101561114b576110a28160098401612386565b60018060a01b0391549060031b1c16600b830154600c8401541080611133575b1561110a5760005260016020526002604060002001908154600181018091116110f4576110ef92556126f1565b611089565b634e487b7160e01b600052601160045260246000fd5b6000526001602052600260406000200190815460001981019081116110f4576110ef92556126f1565b5080600052600360205260ff604060002054166110c2565b509061001b9161115c6013546126f1565b60135561116882612b7b565b546001600160a01b03166000908152601060205260409020612c93565b6111ae6111ef9160026020526111da60036004604060002001604051948591602083019061286f565b6209090960ea1b81528851906111ca8285830160208d0161251e565b0103601c19810185520183612446565b6000526002602052600460406000200161275c565b82611016565b6001602052611233610f3061121d60036006604060002001604051938491602083019061286f565b826000526001602052600660406000200161275c565b8060005260016020526002604060002001546002810181116110f45760029160005260016020520160026040600020015583610feb565b809150600052600360205260ff60406000205416611357575b506001600160601b0360a01b60068201541660068201556000600782016112aa815461239e565b601f8111611338575b50556008810162ffff001981541690556000600a8201556000600b8201556000600c82015560098101546000600983015580611319575b506112f482612823565b60018060a01b03815416600052600f602052611314826040600020612852565b611086565b6113329060098301600052602060002090810190612700565b826112ea565b8183526020832061135191601f0160051c810190612700565b846112b3565b6001602052600260406000200154806001198101116110f457816111ae916113c0936000526001602052600119016002604060002001556113ab60036007604060002001604051948591602083019061286f565b6000526001602052600760406000200161275c565b82611283565b600c8301546001810181116110f457600101600c840155610f04565b6113ef8160098701612386565b905460039190911b1c6001600160a01b0316331461141557611410906126f1565b610dbd565b60405162461bcd60e51b8152602060048201526024808201527f596f75206861766520616c7265616479207665726966696564207468697320696044820152636d61676560e01b6064820152608490fd5b60405162461bcd60e51b815260206004820152601f60248201527f596f752063616e27742076657269667920796f7572206f776e20696d616765006044820152606490fd5b60405162461bcd60e51b815260206004820152602160248201527f596f752063616e27742076657269667920796f7572206f776e20636f6d6d656e6044820152601d60fa1b6064820152608490fd5b60405162461bcd60e51b815260206004820152601a60248201527f4f6e6c7920736369656e74697374732063616e207665726966790000000000006044820152606490fd5b60405162461bcd60e51b81526020600482015260166024820152752cb7ba9030b932903737ba1030903b32b934b334b2b960511b6044820152606490fd5b346103b45760203660031901126103b4576001600160a01b038061159f6122cb565b166000526002602052604060002080549060018101549261161860028301549161160a6115ce60038601612467565b60066115dc60048801612467565b936005880154169601549460405198899889526020890152604088015260e0606088015260e0870190612541565b908582036080870152612541565b9160a084015260c08301520390f35b346103b45760003660031901126103b4576008546001600160401b0381116103595760405160209161165e838260051b0183612446565b80825282820160086000527ff3f7a9fe364faab93b216da50a3214154f22a0a2b415b23a84c8169e8b636ee3846000925b8484106116a3575061067c85610676612d7f565b60019182916116b185612467565b815201920192019190859061168f565b346103b45760403660031901126103b4576116da6122cb565b6001600160a01b031660009081526010602052604090208054602435908110156103b45761170e6105e6916103ff93612386565b9061250d565b346103b45760603660031901126103b45761172d6122cb565b6000546001600160a01b03919061174790831633146126a5565b168060005260016020526008604060002001906001600160601b0360a01b918183825416179055600260406000205560006002604082200155602435600160406000200155604435600360406000200155600b602052604060002060ff199060018282541617905560036020526001604060002091825416179055600654600160401b8110156103595760018101806006558110156103435760066000527ff652222313e28459528d920b65115c16c04f3efc82aaedc97be59f3f377c0d3f01918254161790556108996013546126f1565b346103b45760003660031901126103b4576007546001600160401b0381116103595760405190602090611851828260051b0184612446565b8083528183019260076000527fa66cc928b5edb82af9bd49922954155ab7b0942694bea4ce44661d9a8736c688936000905b83821061189e578461067c8585611898612d7f565b90612ea1565b60018581926118ac89612467565b815201960191019094611883565b346103b45760203660031901126103b4576001600160a01b036118db6122cb565b1660005260106020526103ff6103f36040600020612d20565b346103b45760203660031901126103b4576004356001600160a01b038116908190036103b45780600052600160205260026040600020019081549081156119cd5766038d7ea4c68000808302928304036110f45781471061197e5760008080938193828755828215611975575bf11561196957005b6040513d6000823e3d90fd5b506108fc611961565b60405162461bcd60e51b815260206004820152602160248201527f436f6e74726163742068617320696e73756666696369656e742062616c616e636044820152606560f81b6064820152608490fd5b60405162461bcd60e51b815260206004820152601860248201527f4e6f206175746820706f696e747320746f2072656465656d00000000000000006044820152606490fd5b346103b45760003660031901126103b4576000546040516001600160a01b039091168152602090f35b346103b45760203660031901126103b4576001600160a01b03611a5c6122cb565b16600052600b602052602060ff604060002054166040519015158152f35b346103b4576020806003193601126103b457611a946122cb565b600060c0604051611aa4816123f4565b8281528285820152826040820152606080820152606060808201528260a0820152015260018060a01b0380911660005260028252604060002060405191611aea836123f4565b81548352600182015490848401918252611b8e600284015460408601908152611b7b611b1860038701612467565b60608801908152611b2b60048801612467565b926080890193845260068660058a0154169860a08b01998a5201549660c08a019788526040519a8b9a818c5251908b01525160408a01525160608901525160e06080890152610100880190612541565b9051868203601f190160a0880152612541565b92511660c08401525160e08301520390f35b346103b45760203660031901126103b4576004356001600160401b0381116103b4576020611bd5611c579236906004016125aa565b60006101c0604051611be6816123d8565b8281526060858201526060604082015260608082015260606080820152606060a08201528260c0820152606060e0820152826101008201528261012082015282610140820152606061016082015282610180820152826101a08201520152816040519382858094519384920161251e565b8101600d815203019020604051611c6d816123d8565b81546001600160a01b03168152611c8660018301612467565b6020820152611c9760028301612467565b6040820152611ca860038301612467565b6060820152611cb960048301612467565b6080820152611cca60058301612467565b60a082015260068201546001600160a01b031660c0820152611cee60078301612467565b60e082015260ff60088301548181161515610100840152818160081c16151561012084015260101c1615156101408201526040519182602060098301549485815201936009830160005260206000209060005b818110611ee057505050611d5a81600c94950382612446565b610160840152600a810154610180840152600b8101546101a084015201546101c08201526040516020815260018060a01b038251166020820152611e42611e16611e00611dea611dd4611dbe60208801516101e06040890152610200880190612541565b6040880151878203601f19016060890152612541565b6060870151868203601f19016080880152612541565b6080860151858203601f190160a0870152612541565b60a0850151848203601f190160c0860152612541565b60c08401516001600160a01b031660e084810191909152840151838203601f1901610100850152612541565b61010083015115156101208301526101208301511515610140830152610140830151151561016083015261016083015190601f19838203016101808401526020808351928381520192019060005b818110611ec1575050506101c083610180849501516101a08501526101a08101518285015201516101e08301520390f35b82516001600160a01b0316845260209384019390920191600101611e90565b82546001600160a01b0316875260209096019560019283019201611d41565b346103b45760003660031901126103b457604051806006549182815260208091019260066000527ff652222313e28459528d920b65115c16c04f3efc82aaedc97be59f3f377c0d3f916000905b828210611f6f576103ff85611f6381890382612446565b60405191829182612566565b83546001600160a01b031686529485019460019384019390910190611f4c565b346103b45760203660031901126103b4576001600160a01b03611fb06122cb565b1660005260116020526103ff6103f36040600020612d20565b346103b45760003660031901126103b4576020601354604051908152f35b346103b45760403660031901126103b4576120006122cb565b6001600160a01b031660009081526011602052604090208054602435908110156103b45761170e6105e6916103ff93612386565b346103b45760003660031901126103b457600a546001600160401b038111610359576040519060209061206c828260051b0184612446565b80835281830192600a6000527fc65a7bb8d6351c1cf70c95a316cc6a92839c986682d98bc35f958f4883f9d2a8936000905b8382106120b3578461067c8585611898612d7f565b60018581926120c189612467565b81520196019101909461209e565b346103b45761001b6120e036612600565b60405160208184516120f5818385890161251e565b8101600d81520301902090600882019060ff82541615612146575b505061211d6013546126f1565b60135561212982612a63565b546001600160a01b03166000908152600e60205260409020612c93565b612153906005840161275c565b805460ff1916600117905580546001600160a01b03166000908152600f60205260409020612182908390612852565b61218b82612823565b8380612110565b346103b45760403660031901126103b4576121ab6122cb565b6001600160a01b03166000908152600e602052604090208054602435908110156103b45761170e6105e6916103ff93612386565b346103b45760003660031901126103b457604051806005549182815260208091019260056000527f036b6384b5eca791c62761152d0c79bb0604c104a5fb6f4eb0703f3154bb3db0916000905b828210612243576103ff85611f6381890382612446565b83546001600160a01b03168652948501946001938401939091019061222c565b346103b45760403660031901126103b45761227c6122cb565b6001600160a01b03166000908152600f602052604090208054602435908110156103b45761170e6105e6916103ff93612386565b346103b45760003660031901126103b4576020906005548152f35b600435906001600160a01b03821682036103b457565b6007548110156103435760076000527fa66cc928b5edb82af9bd49922954155ab7b0942694bea4ce44661d9a8736c6880190600090565b6008548110156103435760086000527ff3f7a9fe364faab93b216da50a3214154f22a0a2b415b23a84c8169e8b636ee30190600090565b6009548110156103435760096000527f6e1540171b6c0c960b71a7020d9f60077f6af931a8bbf590da0223dacf75c7af0190600090565b80548210156103435760005260206000200190600090565b90600182811c921680156123ce575b60208310146123b857565b634e487b7160e01b600052602260045260246000fd5b91607f16916123ad565b6101e081019081106001600160401b0382111761035957604052565b60e081019081106001600160401b0382111761035957604052565b61014081019081106001600160401b0382111761035957604052565b602081019081106001600160401b0382111761035957604052565b90601f801991011681019081106001600160401b0382111761035957604052565b906040519182600082549261247b8461239e565b9081845260019485811690816000146124ea57506001146124a7575b50506124a592500383612446565b565b9093915060005260209081600020936000915b8183106124d25750506124a593508201013880612497565b855488840185015294850194879450918301916124ba565b9150506124a594506020925060ff191682840152151560051b8201013880612497565b90610ca65761251b90612467565b90565b60005b8381106125315750506000910152565b8181015183820152602001612521565b9060209161255a8151809281855285808601910161251e565b601f01601f1916010190565b6020908160408183019282815285518094520193019160005b82811061258d575050505090565b83516001600160a01b03168552938101939281019260010161257f565b81601f820112156103b4578035906001600160401b03821161035957604051926125de601f8401601f191660200185612446565b828452602083830101116103b457816000926020809301838601378301015290565b9060406003198301126103b4576001600160401b036004358181116103b4578361262c916004016125aa565b926024359182116103b45761251b916004016125aa565b602080820190808352835180925260408301928160408460051b8301019501936000915b8483106126775750505050505090565b9091929394958480612695600193603f198682030187528a51612541565b9801930193019194939290612667565b156126ac57565b60405162461bcd60e51b815260206004820152601a60248201527f796f7520617265206e6f7420746865206b766b206d656d6265720000000000006044820152606490fd5b60001981146110f45760010190565b81811061270b575050565b60008155600101612700565b9190601f811161272657505050565b6124a5926000526020600020906020601f840160051c83019310612752575b601f0160051c0190612700565b9091508190612745565b91909182516001600160401b038111610359576127838161277d845461239e565b84612717565b602080601f83116001146127bf5750819293946000926127b4575b50508160011b916000199060031b1c1916179055565b01519050388061279e565b90601f198316958460005282600020926000905b88821061280b575050836001959697106127f2575b505050811b019055565b015160001960f88460031b161c191690553880806127e8565b806001859682949686015181550195019301906127d3565b600854600160401b811015610359578060016128429201600855612318565b919091610ca6576124a59161275c565b8054600160401b8110156103595761284291600182018155612386565b60009291815461287e8161239e565b926001918083169081156128d7575060011461289b575b50505050565b90919293945060005260209081600020906000915b8583106128c65750505050019038808080612895565b8054858401529183019181016128b0565b60ff1916845250505081151590910201915038808080612895565b90600092918054916129038361239e565b91828252600193848116908160001461296457506001146129245750505050565b90919394506000526020928360002092846000945b838610612950575050505001019038808080612895565b805485870183015294019385908201612939565b9294505050602093945060ff191683830152151560051b01019038808080612895565b90808214612a5f57612999815461239e565b906001600160401b0382116103595781906129be826129b8865461239e565b86612717565b600090601f83116001146129f4576000926129e95750508160011b916000199060031b1c1916179055565b01549050388061279e565b81526020808220858352818320935090601f1985169083905b828210612a46575050908460019594939210612a2d57505050811b019055565b015460001960f88460031b161c191690553880806127e8565b8495819295850154815560018091019601940190612a0d565b5050565b80516020809201209060005b6007805480831015612b745784612a98612a9f612a8b866122e1565b50604051928380926128f2565b0382612446565b85815191012014612aba575050612ab5906126f1565b612a6f565b9293509160001991908281019081116110f457612ad9612ae0916122e1565b50916122e1565b919091610ca657612af091612987565b81548015612b5e570191612b03836122e1565b610ca657612b11815461239e565b80612b1d575b50505055565b600092601f808311600114612b3957505050555b388080612b17565b8385528185208593612b54920160051c810190600101612700565b8120915555612b31565b634e487b7160e01b600052603160045260246000fd5b5050505050565b80516020809201209060005b6009805480831015612b745784612a98612ba3612a8b8661234f565b85815191012014612bbe575050612bb9906126f1565b612b87565b9293509160001991908281019081116110f457612bdd612be49161234f565b509161234f565b919091610ca657612bf491612987565b81548015612b5e570191612b038361234f565b80516020809201209060005b6008805480831015612b745784612a98612c2f612a8b86612318565b85815191012014612c4a575050612c45906126f1565b612c13565b9293509160001991908281019081116110f457612c69612c7091612318565b5091612318565b919091610ca657612c8091612987565b81548015612b5e570191612b0383612318565b9080516020809201209160005b815480821015612b745784612a98612cbb612a8b8587612386565b85815191012014612cd55750612cd0906126f1565b612ca0565b91929350600019918281019081116110f457612cf4612cfc9185612386565b509184612386565b919091610ca657612d0c91612987565b81548015612b5e570191612b038383612386565b9081546001600160401b03811161035957604051926020612d46818460051b0186612446565b82855260009182528082208186015b848410612d63575050505050565b6001838192612d7185612467565b815201920193019290612d55565b60405190604082018281106001600160401b0382111761035957604052600382526209090960ea1b6020830152565b8051156103435760200190565b80518210156103435760209160051b010190565b908151158015612e99575b612e845781516014811015612e7b579190915b612df682612dae565b51926001925b828410612e0a575050505090565b90919293612e7390612e6d612e1f8785612dbb565b519160405180938251612e3a8160209586808701910161251e565b8201885190612e4e82868301878d0161251e565b01612e618251809386808501910161251e565b01038084520182612446565b946126f1565b929190612dfc565b50906014612ded565b5050604051612e928161242b565b6000815290565b506000612dda565b918251158015612f13575b612f045782519080821015612efa57509190915b612ec982612dae565b51926001925b828410612edd575050505090565b90919293612ef290612e6d612e1f8785612dbb565b929190612ecf565b9050919091612ec0565b505050604051612e928161242b565b508015612eac56fea26469706673582212200f533c0dd9953df0eb9075791f7aa7eed5ee5f578888798bc9854d4adfae24ff64736f6c63430008110033",
  "linkReferences": {},
  "deployedLinkReferences": {}
}